{
  "_format": "hh-sol-artifact-1",
  "contractName": "VehicleSharing",
  "sourceName": "contracts/vehicle.sol",
  "abi": [
    {
      "inputs": [],
      "stateMutability": "nonpayable",
      "type": "constructor"
    },
    {
      "anonymous": false,
      "inputs": [
        {
          "indexed": true,
          "internalType": "address",
          "name": "owner",
          "type": "address"
        },
        {
          "indexed": true,
          "internalType": "address",
          "name": "approved",
          "type": "address"
        },
        {
          "indexed": true,
          "internalType": "uint256",
          "name": "tokenId",
          "type": "uint256"
        }
      ],
      "name": "Approval",
      "type": "event"
    },
    {
      "anonymous": false,
      "inputs": [
        {
          "indexed": true,
          "internalType": "address",
          "name": "owner",
          "type": "address"
        },
        {
          "indexed": true,
          "internalType": "address",
          "name": "operator",
          "type": "address"
        },
        {
          "indexed": false,
          "internalType": "bool",
          "name": "approved",
          "type": "bool"
        }
      ],
      "name": "ApprovalForAll",
      "type": "event"
    },
    {
      "anonymous": false,
      "inputs": [
        {
          "indexed": false,
          "internalType": "uint256",
          "name": "payment",
          "type": "uint256"
        }
      ],
      "name": "Payment",
      "type": "event"
    },
    {
      "anonymous": false,
      "inputs": [
        {
          "indexed": false,
          "internalType": "uint256",
          "name": "rent_cost",
          "type": "uint256"
        }
      ],
      "name": "RentCost",
      "type": "event"
    },
    {
      "anonymous": false,
      "inputs": [
        {
          "indexed": true,
          "internalType": "address",
          "name": "from",
          "type": "address"
        },
        {
          "indexed": true,
          "internalType": "address",
          "name": "to",
          "type": "address"
        },
        {
          "indexed": true,
          "internalType": "uint256",
          "name": "tokenId",
          "type": "uint256"
        }
      ],
      "name": "Transfer",
      "type": "event"
    },
    {
      "inputs": [
        {
          "internalType": "address",
          "name": "",
          "type": "address"
        }
      ],
      "name": "_users",
      "outputs": [
        {
          "internalType": "string",
          "name": "name",
          "type": "string"
        },
        {
          "internalType": "string",
          "name": "aadhar",
          "type": "string"
        },
        {
          "internalType": "address",
          "name": "userAddress",
          "type": "address"
        }
      ],
      "stateMutability": "view",
      "type": "function"
    },
    {
      "inputs": [
        {
          "internalType": "uint256",
          "name": "",
          "type": "uint256"
        }
      ],
      "name": "_vehicles",
      "outputs": [
        {
          "internalType": "uint256",
          "name": "id",
          "type": "uint256"
        },
        {
          "internalType": "uint256",
          "name": "pricePerHour",
          "type": "uint256"
        },
        {
          "internalType": "address",
          "name": "currentRenter",
          "type": "address"
        },
        {
          "internalType": "address",
          "name": "owner",
          "type": "address"
        },
        {
          "internalType": "bool",
          "name": "isAvailable",
          "type": "bool"
        },
        {
          "internalType": "uint256",
          "name": "deposit_bal",
          "type": "uint256"
        },
        {
          "internalType": "uint256",
          "name": "temp_bal",
          "type": "uint256"
        },
        {
          "internalType": "uint256",
          "name": "start",
          "type": "uint256"
        },
        {
          "internalType": "uint256",
          "name": "end",
          "type": "uint256"
        },
        {
          "internalType": "uint256",
          "name": "ratings",
          "type": "uint256"
        }
      ],
      "stateMutability": "view",
      "type": "function"
    },
    {
      "inputs": [
        {
          "internalType": "address",
          "name": "owner",
          "type": "address"
        },
        {
          "internalType": "string",
          "name": "typeVehicle",
          "type": "string"
        },
        {
          "internalType": "string",
          "name": "make",
          "type": "string"
        },
        {
          "internalType": "string",
          "name": "model",
          "type": "string"
        },
        {
          "internalType": "uint256",
          "name": "pricePerHour",
          "type": "uint256"
        },
        {
          "internalType": "uint256",
          "name": "deposit_price",
          "type": "uint256"
        },
        {
          "internalType": "string",
          "name": "imageHash",
          "type": "string"
        }
      ],
      "name": "addVehicle",
      "outputs": [],
      "stateMutability": "nonpayable",
      "type": "function"
    },
    {
      "inputs": [
        {
          "internalType": "address",
          "name": "to",
          "type": "address"
        },
        {
          "internalType": "uint256",
          "name": "tokenId",
          "type": "uint256"
        }
      ],
      "name": "approve",
      "outputs": [],
      "stateMutability": "nonpayable",
      "type": "function"
    },
    {
      "inputs": [
        {
          "internalType": "address",
          "name": "owner",
          "type": "address"
        }
      ],
      "name": "balanceOf",
      "outputs": [
        {
          "internalType": "uint256",
          "name": "",
          "type": "uint256"
        }
      ],
      "stateMutability": "view",
      "type": "function"
    },
    {
      "inputs": [
        {
          "internalType": "uint256",
          "name": "vehicleId",
          "type": "uint256"
        }
      ],
      "name": "calculatePayment",
      "outputs": [
        {
          "internalType": "uint256",
          "name": "",
          "type": "uint256"
        },
        {
          "internalType": "address",
          "name": "",
          "type": "address"
        }
      ],
      "stateMutability": "view",
      "type": "function"
    },
    {
      "inputs": [
        {
          "internalType": "uint256",
          "name": "vehicleId",
          "type": "uint256"
        },
        {
          "internalType": "uint256",
          "name": "start",
          "type": "uint256"
        },
        {
          "internalType": "uint256",
          "name": "end",
          "type": "uint256"
        }
      ],
      "name": "calculateRentCost",
      "outputs": [
        {
          "internalType": "uint256",
          "name": "",
          "type": "uint256"
        },
        {
          "internalType": "address",
          "name": "",
          "type": "address"
        }
      ],
      "stateMutability": "view",
      "type": "function"
    },
    {
      "inputs": [
        {
          "internalType": "uint256",
          "name": "vehicleId",
          "type": "uint256"
        },
        {
          "internalType": "address",
          "name": "renter",
          "type": "address"
        }
      ],
      "name": "doesRenterExist",
      "outputs": [
        {
          "internalType": "bool",
          "name": "",
          "type": "bool"
        }
      ],
      "stateMutability": "view",
      "type": "function"
    },
    {
      "inputs": [
        {
          "internalType": "uint256",
          "name": "vehicleId",
          "type": "uint256"
        },
        {
          "internalType": "address",
          "name": "renter",
          "type": "address"
        }
      ],
      "name": "doesRenterRated",
      "outputs": [
        {
          "internalType": "bool",
          "name": "",
          "type": "bool"
        }
      ],
      "stateMutability": "view",
      "type": "function"
    },
    {
      "inputs": [
        {
          "internalType": "uint256",
          "name": "tokenId",
          "type": "uint256"
        }
      ],
      "name": "getApproved",
      "outputs": [
        {
          "internalType": "address",
          "name": "",
          "type": "address"
        }
      ],
      "stateMutability": "view",
      "type": "function"
    },
    {
      "inputs": [
        {
          "internalType": "address",
          "name": "account",
          "type": "address"
        }
      ],
      "name": "getBalance",
      "outputs": [
        {
          "internalType": "uint256",
          "name": "",
          "type": "uint256"
        }
      ],
      "stateMutability": "view",
      "type": "function"
    },
    {
      "inputs": [
        {
          "internalType": "uint256",
          "name": "vehicleId",
          "type": "uint256"
        }
      ],
      "name": "getVehicleDetails",
      "outputs": [
        {
          "internalType": "uint256",
          "name": "",
          "type": "uint256"
        },
        {
          "internalType": "string",
          "name": "",
          "type": "string"
        },
        {
          "internalType": "string",
          "name": "",
          "type": "string"
        },
        {
          "internalType": "string",
          "name": "",
          "type": "string"
        },
        {
          "internalType": "uint256",
          "name": "",
          "type": "uint256"
        },
        {
          "internalType": "uint256",
          "name": "",
          "type": "uint256"
        },
        {
          "internalType": "address",
          "name": "",
          "type": "address"
        },
        {
          "internalType": "address[]",
          "name": "",
          "type": "address[]"
        },
        {
          "internalType": "string",
          "name": "",
          "type": "string"
        },
        {
          "internalType": "bool",
          "name": "",
          "type": "bool"
        },
        {
          "internalType": "uint256",
          "name": "",
          "type": "uint256"
        }
      ],
      "stateMutability": "view",
      "type": "function"
    },
    {
      "inputs": [],
      "name": "getVehicleIds",
      "outputs": [
        {
          "internalType": "uint256[]",
          "name": "",
          "type": "uint256[]"
        }
      ],
      "stateMutability": "view",
      "type": "function"
    },
    {
      "inputs": [
        {
          "internalType": "address",
          "name": "owner",
          "type": "address"
        },
        {
          "internalType": "address",
          "name": "operator",
          "type": "address"
        }
      ],
      "name": "isApprovedForAll",
      "outputs": [
        {
          "internalType": "bool",
          "name": "",
          "type": "bool"
        }
      ],
      "stateMutability": "view",
      "type": "function"
    },
    {
      "inputs": [],
      "name": "manager",
      "outputs": [
        {
          "internalType": "address",
          "name": "",
          "type": "address"
        }
      ],
      "stateMutability": "view",
      "type": "function"
    },
    {
      "inputs": [],
      "name": "name",
      "outputs": [
        {
          "internalType": "string",
          "name": "",
          "type": "string"
        }
      ],
      "stateMutability": "view",
      "type": "function"
    },
    {
      "inputs": [
        {
          "internalType": "uint256",
          "name": "tokenId",
          "type": "uint256"
        }
      ],
      "name": "ownerOf",
      "outputs": [
        {
          "internalType": "address",
          "name": "",
          "type": "address"
        }
      ],
      "stateMutability": "view",
      "type": "function"
    },
    {
      "inputs": [
        {
          "internalType": "uint256",
          "name": "vehicleId",
          "type": "uint256"
        },
        {
          "internalType": "uint256",
          "name": "rating",
          "type": "uint256"
        },
        {
          "internalType": "string",
          "name": "review",
          "type": "string"
        }
      ],
      "name": "rateVehicle",
      "outputs": [],
      "stateMutability": "nonpayable",
      "type": "function"
    },
    {
      "inputs": [
        {
          "internalType": "string",
          "name": "name",
          "type": "string"
        },
        {
          "internalType": "string",
          "name": "aadhar",
          "type": "string"
        }
      ],
      "name": "registerUser",
      "outputs": [],
      "stateMutability": "nonpayable",
      "type": "function"
    },
    {
      "inputs": [
        {
          "internalType": "uint256",
          "name": "vehicleId",
          "type": "uint256"
        },
        {
          "internalType": "uint256",
          "name": "start",
          "type": "uint256"
        },
        {
          "internalType": "uint256",
          "name": "end",
          "type": "uint256"
        }
      ],
      "name": "rentVehicle",
      "outputs": [],
      "stateMutability": "payable",
      "type": "function"
    },
    {
      "inputs": [
        {
          "internalType": "uint256",
          "name": "vehicleId",
          "type": "uint256"
        }
      ],
      "name": "returnVehicle",
      "outputs": [],
      "stateMutability": "payable",
      "type": "function"
    },
    {
      "inputs": [
        {
          "internalType": "address",
          "name": "from",
          "type": "address"
        },
        {
          "internalType": "address",
          "name": "to",
          "type": "address"
        },
        {
          "internalType": "uint256",
          "name": "tokenId",
          "type": "uint256"
        }
      ],
      "name": "safeTransferFrom",
      "outputs": [],
      "stateMutability": "nonpayable",
      "type": "function"
    },
    {
      "inputs": [
        {
          "internalType": "address",
          "name": "from",
          "type": "address"
        },
        {
          "internalType": "address",
          "name": "to",
          "type": "address"
        },
        {
          "internalType": "uint256",
          "name": "tokenId",
          "type": "uint256"
        },
        {
          "internalType": "bytes",
          "name": "data",
          "type": "bytes"
        }
      ],
      "name": "safeTransferFrom",
      "outputs": [],
      "stateMutability": "nonpayable",
      "type": "function"
    },
    {
      "inputs": [
        {
          "internalType": "address",
          "name": "operator",
          "type": "address"
        },
        {
          "internalType": "bool",
          "name": "approved",
          "type": "bool"
        }
      ],
      "name": "setApprovalForAll",
      "outputs": [],
      "stateMutability": "nonpayable",
      "type": "function"
    },
    {
      "inputs": [
        {
          "internalType": "bytes4",
          "name": "interfaceId",
          "type": "bytes4"
        }
      ],
      "name": "supportsInterface",
      "outputs": [
        {
          "internalType": "bool",
          "name": "",
          "type": "bool"
        }
      ],
      "stateMutability": "view",
      "type": "function"
    },
    {
      "inputs": [],
      "name": "symbol",
      "outputs": [
        {
          "internalType": "string",
          "name": "",
          "type": "string"
        }
      ],
      "stateMutability": "view",
      "type": "function"
    },
    {
      "inputs": [
        {
          "internalType": "uint256",
          "name": "tokenId",
          "type": "uint256"
        }
      ],
      "name": "tokenURI",
      "outputs": [
        {
          "internalType": "string",
          "name": "",
          "type": "string"
        }
      ],
      "stateMutability": "view",
      "type": "function"
    },
    {
      "inputs": [
        {
          "internalType": "address",
          "name": "from",
          "type": "address"
        },
        {
          "internalType": "address",
          "name": "to",
          "type": "address"
        },
        {
          "internalType": "uint256",
          "name": "tokenId",
          "type": "uint256"
        }
      ],
      "name": "transferFrom",
      "outputs": [],
      "stateMutability": "nonpayable",
      "type": "function"
    }
  ],
  "bytecode": "0x60806040526000600a553480156200001657600080fd5b506040518060400160405280600c81526020016b2b32b434b1b632aa37b5b2b760a11b81525060405180604001604052806002815260200161159560f21b815250816000908162000068919062000139565b50600162000077828262000139565b5050600980546001600160a01b031916331790555062000205565b634e487b7160e01b600052604160045260246000fd5b600181811c90821680620000bd57607f821691505b602082108103620000de57634e487b7160e01b600052602260045260246000fd5b50919050565b601f82111562000134576000816000526020600020601f850160051c810160208610156200010f5750805b601f850160051c820191505b8181101562000130578281556001016200011b565b5050505b505050565b81516001600160401b0381111562000155576200015562000092565b6200016d81620001668454620000a8565b84620000e4565b602080601f831160018114620001a557600084156200018c5750858301515b600019600386901b1c1916600185901b17855562000130565b600085815260208120601f198616915b82811015620001d657888601518255948401946001909101908401620001b5565b5085821015620001f55787850151600019600388901b60f8161c191681555b5050505050600190811b01905550565b612bd880620002156000396000f3fe6080604052600436106101475760003560e01c806301ffc9a71461014c57806304314f491461018157806306f1b2ee146101b857806306fdde03146101da578063081812fc146101fc578063095ea7b3146102345780630d9f2496146102565780631d2e4afd1461026957806323b872dd1461028957806336b1b8f9146102a9578063390e8a77146102c95780633cacd7d6146102dc57806342842e0e1461030b578063481c6a751461032b5780636352211e1461034b57806370a082311461036b5780638c67f63a1461039957806395d89b41146103d6578063a22cb465146103eb578063a2578a681461040b578063a42321301461042b578063b88d4fde1461044b578063c370d4411461046b578063c87b56dd14610540578063c9775a2e14610560578063debd22ff14610580578063e985e9c5146105a0578063f8b2cb4f146105c0575b600080fd5b34801561015857600080fd5b5061016c61016736600461202e565b6105e8565b60405190151581526020015b60405180910390f35b34801561018d57600080fd5b506101a161019c36600461204b565b61063a565b6040516101789b9a999897969594939291906120b4565b3480156101c457600080fd5b506101cd6109d7565b6040516101789190612193565b3480156101e657600080fd5b506101ef610a73565b60405161017891906121d7565b34801561020857600080fd5b5061021c61021736600461204b565b610b05565b6040516001600160a01b039091168152602001610178565b34801561024057600080fd5b5061025461024f366004612206565b610b2c565b005b61025461026436600461204b565b610c46565b34801561027557600080fd5b506102546102843660046122db565b610e6f565b34801561029557600080fd5b506102546102a436600461233e565b610f16565b3480156102b557600080fd5b5061016c6102c436600461237a565b610f47565b6102546102d73660046123a6565b610fba565b3480156102e857600080fd5b506102fc6102f73660046123d2565b61114f565b604051610178939291906123ed565b34801561031757600080fd5b5061025461032636600461233e565b61128a565b34801561033757600080fd5b5060095461021c906001600160a01b031681565b34801561035757600080fd5b5061021c61036636600461204b565b6112a5565b34801561037757600080fd5b5061038b6103863660046123d2565b6112d9565b604051908152602001610178565b3480156103a557600080fd5b506103b96103b436600461204b565b61135f565b604080519283526001600160a01b03909116602083015201610178565b3480156103e257600080fd5b506101ef6113c7565b3480156103f757600080fd5b5061025461040636600461242b565b6113d6565b34801561041757600080fd5b50610254610426366004612467565b6113e5565b34801561043757600080fd5b5061016c61044636600461237a565b6115b9565b34801561045757600080fd5b506102546104663660046124b6565b611621565b34801561047757600080fd5b506104ea61048636600461204b565b6008602081905260009182526040909120805460028201546003830154600484015460068501546007860154968601546009870154600a880154600b90980154969895976001600160a01b0395861697949095169560ff909316949293919290918a565b604080519a8b5260208b01999099526001600160a01b03978816988a0198909852959094166060880152911515608087015260a086015260c085015260e084015261010083015261012082015261014001610178565b34801561054c57600080fd5b506101ef61055b36600461204b565b611659565b34801561056c57600080fd5b506103b961057b3660046123a6565b6116cd565b34801561058c57600080fd5b5061025461059b366004612579565b611741565b3480156105ac57600080fd5b5061016c6105bb366004612667565b61190a565b3480156105cc57600080fd5b5061038b6105db3660046123d2565b6001600160a01b03163190565b60006001600160e01b031982166380ac58cd60e01b148061061957506001600160e01b03198216635b5e139f60e01b145b8061063457506301ffc9a760e01b6001600160e01b03198316145b92915050565b6000606080606060008060006060806000806000600860008e8152602001908152602001600020905080600001548160010160008154811061067e5761067e612691565b906000526020600020018260010160018154811061069e5761069e612691565b90600052602060002001836001016002815481106106be576106be612691565b90600052602060002001846002015485600701548660030160009054906101000a90046001600160a01b0316876005018860010160038154811061070457610704612691565b906000526020600020018960060160009054906101000a900460ff168a600b0154898054610731906126a7565b80601f016020809104026020016040519081016040528092919081815260200182805461075d906126a7565b80156107aa5780601f1061077f576101008083540402835291602001916107aa565b820191906000526020600020905b81548152906001019060200180831161078d57829003601f168201915b505050505099508880546107bd906126a7565b80601f01602080910402602001604051908101604052809291908181526020018280546107e9906126a7565b80156108365780601f1061080b57610100808354040283529160200191610836565b820191906000526020600020905b81548152906001019060200180831161081957829003601f168201915b50505050509850878054610849906126a7565b80601f0160208091040260200160405190810160405280929190818152602001828054610875906126a7565b80156108c25780601f10610897576101008083540402835291602001916108c2565b820191906000526020600020905b8154815290600101906020018083116108a557829003601f168201915b505050505097508380548060200260200160405190810160405280929190818152602001828054801561091e57602002820191906000526020600020905b81546001600160a01b03168152600190910190602001808311610900575b50505050509350828054610931906126a7565b80601f016020809104026020016040519081016040528092919081815260200182805461095d906126a7565b80156109aa5780601f1061097f576101008083540402835291602001916109aa565b820191906000526020600020905b81548152906001019060200180831161098d57829003601f168201915b505050505092509b509b509b509b509b509b509b509b509b509b509b505091939597999b90929496989a50565b606060006109e460065490565b6001600160401b038111156109fb576109fb612230565b604051908082528060200260200182016040528015610a24578160200160208202803683370190505b50905060015b6006548111610a6d578082610a406001836126f1565b81518110610a5057610a50612691565b602090810291909101015280610a6581612704565b915050610a2a565b50919050565b606060008054610a82906126a7565b80601f0160208091040260200160405190810160405280929190818152602001828054610aae906126a7565b8015610afb5780601f10610ad057610100808354040283529160200191610afb565b820191906000526020600020905b815481529060010190602001808311610ade57829003601f168201915b5050505050905090565b6000610b1082611938565b506000908152600460205260409020546001600160a01b031690565b6000610b37826112a5565b9050806001600160a01b0316836001600160a01b031603610ba95760405162461bcd60e51b815260206004820152602160248201527f4552433732313a20617070726f76616c20746f2063757272656e74206f776e656044820152603960f91b60648201526084015b60405180910390fd5b336001600160a01b0382161480610bc55750610bc5813361190a565b610c375760405162461bcd60e51b815260206004820152603d60248201527f4552433732313a20617070726f76652063616c6c6572206973206e6f7420746f60448201527f6b656e206f776e6572206f7220617070726f76656420666f7220616c6c0000006064820152608401610ba0565b610c418383611960565b505050565b600081815260086020526040902060038101546001600160a01b03163314610cbf5760405162461bcd60e51b815260206004820152602660248201527f596f7520617265206e6f74207468652072656e746572206f6620746869732076604482015265656869636c6560d01b6064820152608401610ba0565b60006236ee808260090154426103e8610cd8919061271d565b610ce291906126f1565b8360020154610cf1919061271d565b610cfb9190612734565b90507fd73298c59e2f8823f5313441b46ced5bddf204a2d4d72bdd904a6d6785e51ae981604051610d2e91815260200190565b60405180910390a160048201546040516000916001600160a01b03169083908381818185875af1925050503d8060008114610d85576040519150601f19603f3d011682016040523d82523d6000602084013e610d8a565b606091505b5050905080610dab5760405162461bcd60e51b8152600401610ba090612756565b6000336001600160a01b0316838560080154610dc791906126f1565b604051600081818185875af1925050503d8060008114610e03576040519150601f19603f3d011682016040523d82523d6000602084013e610e08565b606091505b5050905080610e295760405162461bcd60e51b8152600401610ba090612756565b6003840180546001600160a01b031916905560068401805460ff19166001179055610e68610e56866112a5565b6009546001600160a01b0316876119ce565b5050505050565b336000908152600760205260409020600201546001600160a01b031615610ed55760405162461bcd60e51b815260206004820152601a602482015279155cd95c881a5cc8185b1c9958591e481c9959da5cdd195c995960321b6044820152606401610ba0565b33600090815260076020526040902080610eef84826127f9565b5060018101610efe83826127f9565b5060020180546001600160a01b031916331790555050565b610f203382611b20565b610f3c5760405162461bcd60e51b8152600401610ba0906128b2565b610c418383836119ce565b6000828152600860205260408120815b6005820154811015610faf57836001600160a01b0316826005018281548110610f8257610f82612691565b6000918252602090912001546001600160a01b031603610fa757600192505050610634565b600101610f57565b506000949350505050565b808210610fd95760405162461bcd60e51b8152600401610ba0906128ff565b600083815260086020526040902060038101546001600160a01b03161561103e5760405162461bcd60e51b815260206004820152601960248201527815995a1a58db19481a5cc8185b1c9958591e481c995b9d1959603a1b6044820152606401610ba0565b33600090815260076020526040902060028101546001600160a01b03166110a05760405162461bcd60e51b8152602060048201526016602482015275155cd95c881a5cc81b9bdd081c9959da5cdd195c995960521b6044820152606401610ba0565b60006236ee806110b086866126f1565b84600201546110bf919061271d565b6110c99190612734565b83600701546110d8919061292e565b60088401819055600384018054336001600160a01b0319918216811790925560058601805460018101825560009182526020909120018054909116909117905560068401805460ff1916905560098401869055600a84018590559050611147611140876112a5565b33886119ce565b505050505050565b60076020526000908152604090208054819061116a906126a7565b80601f0160208091040260200160405190810160405280929190818152602001828054611196906126a7565b80156111e35780601f106111b8576101008083540402835291602001916111e3565b820191906000526020600020905b8154815290600101906020018083116111c657829003601f168201915b5050505050908060010180546111f8906126a7565b80601f0160208091040260200160405190810160405280929190818152602001828054611224906126a7565b80156112715780601f1061124657610100808354040283529160200191611271565b820191906000526020600020905b81548152906001019060200180831161125457829003601f168201915b505050600290930154919250506001600160a01b031683565b610c4183838360405180602001604052806000815250611621565b6000806112b183611b7f565b90506001600160a01b0381166106345760405162461bcd60e51b8152600401610ba090612941565b60006001600160a01b0382166113435760405162461bcd60e51b815260206004820152602960248201527f4552433732313a2061646472657373207a65726f206973206e6f7420612076616044820152683634b21037bbb732b960b91b6064820152608401610ba0565b506001600160a01b031660009081526003602052604090205490565b6000818152600860205260408120600981015482919082906236ee8090611388426103e861271d565b61139291906126f1565b83600201546113a1919061271d565b6113ab9190612734565b60049092015491956001600160a01b0390921694509092505050565b606060018054610a82906126a7565b6113e1338383611b9a565b5050565b600182101580156113f7575060058211155b6114435760405162461bcd60e51b815260206004820152601e60248201527f526174696e67206d757374206265206265747765656e203120616e64203500006044820152606401610ba0565b600083815260086020526040902061145b8433610f47565b6114bc5760405162461bcd60e51b815260206004820152602c60248201527f596f752068617665206e657665722072656e746564207468697320766568696360448201526b6c652e204675636b20796f7560a01b6064820152608401610ba0565b6114c684336115b9565b1561151f5760405162461bcd60e51b815260206004820152602360248201527f596f75206861766520616c726561647920726174656420746869732076656869604482015262636c6560e81b6064820152608401610ba0565b600a805490600061152f83612704565b9091555061154190508361271061271d565b81600b016000828254611554919061292e565b9091555050600a54600b82018054600090611570908490612734565b9091555050600c81018054600181810183556000928352602080842090920180546001600160a01b03191633179055600d8401805491820181558352912001610e6883826127f9565b6000828152600860205260408120815b600c820154811015610faf57836001600160a01b031682600c0182815481106115f4576115f4612691565b6000918252602090912001546001600160a01b03160361161957600192505050610634565b6001016115c9565b61162b3383611b20565b6116475760405162461bcd60e51b8152600401610ba0906128b2565b61165384848484611c64565b50505050565b606061166482611938565b600061167b60408051602081019091526000815290565b9050600081511161169b57604051806020016040528060008152506116c6565b806116a584611c97565b6040516020016116b6929190612973565b6040516020818303038152906040525b9392505050565b6000808284106116ef5760405162461bcd60e51b8152600401610ba0906128ff565b6000858152600860205260408120906236ee8061170c87876126f1565b836002015461171b919061271d565b6117259190612734565b8260070154611734919061292e565b9730975095505050505050565b6009546001600160a01b0316331461178a5760405162461bcd60e51b815260206004820152600c60248201526b155b985d5d1a1bdc9a5e995960a21b6044820152606401610ba0565b611798600680546001019055565b60006117a360065490565b90506117af3382611d29565b60006008600083815260200190815260200160002090508c8160040160006101000a8154816001600160a01b0302191690836001600160a01b03160217905550818160000181905550806001018c8c909180600181540180825580915050600190039060005260206000200160009091929091929091929091925091826118379291906129a2565b50600180820180549182018155600090815260209020016118598a8c836129a2565b506001808201805491820181556000908152602090200161187b888a836129a2565b506001808201805491820181556000908152602090200161189d8486836129a2565b506118b086670de0b6b3a764000061271d565b60028201556118c785670de0b6b3a764000061271d565b60078201556003810180546001600160a01b031916905560068101805460ff19166001179055600060088201819055600b90910155505050505050505050505050565b6001600160a01b03918216600090815260056020908152604080832093909416825291909152205460ff1690565b61194181611e24565b61195d5760405162461bcd60e51b8152600401610ba090612941565b50565b600081815260046020526040902080546001600160a01b0319166001600160a01b0384169081179091558190611995826112a5565b6001600160a01b03167f8c5be1e5ebec7d5bd14f71427d1e84f3dd0314c0f7b2291e5b200ac8c7c3b92560405160405180910390a45050565b826001600160a01b03166119e1826112a5565b6001600160a01b031614611a075760405162461bcd60e51b8152600401610ba090612a5b565b6001600160a01b038216611a695760405162461bcd60e51b8152602060048201526024808201527f4552433732313a207472616e7366657220746f20746865207a65726f206164646044820152637265737360e01b6064820152608401610ba0565b826001600160a01b0316611a7c826112a5565b6001600160a01b031614611aa25760405162461bcd60e51b8152600401610ba090612a5b565b600081815260046020908152604080832080546001600160a01b03199081169091556001600160a01b038781168086526003855283862080546000190190559087168086528386208054600101905586865260029094528285208054909216841790915590518493600080516020612b8383398151915291a4505050565b600080611b2c836112a5565b9050806001600160a01b0316846001600160a01b03161480611b535750611b53818561190a565b80611b775750836001600160a01b0316611b6c84610b05565b6001600160a01b0316145b949350505050565b6000908152600260205260409020546001600160a01b031690565b816001600160a01b0316836001600160a01b031603611bf75760405162461bcd60e51b815260206004820152601960248201527822a9219b99189d1030b8383937bb32903a379031b0b63632b960391b6044820152606401610ba0565b6001600160a01b03838116600081815260056020908152604080832094871680845294825291829020805460ff191686151590811790915591519182527f17307eab39ab6107e8899845ad3d59bd9653f200f220920489ca2b5937696c31910160405180910390a3505050565b611c6f8484846119ce565b611c7b84848484611e41565b6116535760405162461bcd60e51b8152600401610ba090612aa0565b60606000611ca483611f42565b60010190506000816001600160401b03811115611cc357611cc3612230565b6040519080825280601f01601f191660200182016040528015611ced576020820181803683370190505b5090508181016020015b600019016f181899199a1a9b1b9c1cb0b131b232b360811b600a86061a8153600a8504945084611cf757509392505050565b6001600160a01b038216611d7f5760405162461bcd60e51b815260206004820181905260248201527f4552433732313a206d696e7420746f20746865207a65726f20616464726573736044820152606401610ba0565b611d8881611e24565b15611da55760405162461bcd60e51b8152600401610ba090612af2565b611dae81611e24565b15611dcb5760405162461bcd60e51b8152600401610ba090612af2565b6001600160a01b038216600081815260036020908152604080832080546001019055848352600290915280822080546001600160a01b031916841790555183929190600080516020612b83833981519152908290a45050565b600080611e3083611b7f565b6001600160a01b0316141592915050565b60006001600160a01b0384163b15611f3757604051630a85bd0160e11b81526001600160a01b0385169063150b7a0290611e85903390899088908890600401612b28565b6020604051808303816000875af1925050508015611ec0575060408051601f3d908101601f19168201909252611ebd91810190612b65565b60015b611f1d573d808015611eee576040519150601f19603f3d011682016040523d82523d6000602084013e611ef3565b606091505b508051600003611f155760405162461bcd60e51b8152600401610ba090612aa0565b805181602001fd5b6001600160e01b031916630a85bd0160e11b149050611b77565b506001949350505050565b60008072184f03e93ff9f4daa797ed6e38ed64bf6a1f0160401b8310611f815772184f03e93ff9f4daa797ed6e38ed64bf6a1f0160401b830492506040015b6904ee2d6d415b85acef8160201b8310611fab576904ee2d6d415b85acef8160201b830492506020015b662386f26fc100008310611fc957662386f26fc10000830492506010015b6305f5e1008310611fe1576305f5e100830492506008015b6127108310611ff557612710830492506004015b60648310612007576064830492506002015b600a83106106345760010192915050565b6001600160e01b03198116811461195d57600080fd5b60006020828403121561204057600080fd5b81356116c681612018565b60006020828403121561205d57600080fd5b5035919050565b60005b8381101561207f578181015183820152602001612067565b50506000910152565b600081518084526120a0816020860160208601612064565b601f01601f19169290920160200192915050565b60006101608d835260208160208501526120d08285018f612088565b915083820360408501526120e4828e612088565b915083820360608501526120f8828d612088565b608085018c905260a085018b90526001600160a01b038a811660c087015285820360e087015289518083526020808c0195509192919091019060005b81811015612152578551841683529484019491840191600101612134565b5050858103610100870152612167818a612088565b94505050505061217c61012083018515159052565b826101408301529c9b505050505050505050505050565b6020808252825182820181905260009190848201906040850190845b818110156121cb578351835292840192918401916001016121af565b50909695505050505050565b6020815260006116c66020830184612088565b80356001600160a01b038116811461220157600080fd5b919050565b6000806040838503121561221957600080fd5b612222836121ea565b946020939093013593505050565b634e487b7160e01b600052604160045260246000fd5b60006001600160401b038084111561226057612260612230565b604051601f8501601f19908116603f0116810190828211818310171561228857612288612230565b816040528093508581528686860111156122a157600080fd5b858560208301376000602087830101525050509392505050565b600082601f8301126122cc57600080fd5b6116c683833560208501612246565b600080604083850312156122ee57600080fd5b82356001600160401b038082111561230557600080fd5b612311868387016122bb565b9350602085013591508082111561232757600080fd5b50612334858286016122bb565b9150509250929050565b60008060006060848603121561235357600080fd5b61235c846121ea565b925061236a602085016121ea565b9150604084013590509250925092565b6000806040838503121561238d57600080fd5b8235915061239d602084016121ea565b90509250929050565b6000806000606084860312156123bb57600080fd5b505081359360208301359350604090920135919050565b6000602082840312156123e457600080fd5b6116c6826121ea565b6060815260006124006060830186612088565b82810360208401526124128186612088565b91505060018060a01b0383166040830152949350505050565b6000806040838503121561243e57600080fd5b612447836121ea565b91506020830135801515811461245c57600080fd5b809150509250929050565b60008060006060848603121561247c57600080fd5b833592506020840135915060408401356001600160401b038111156124a057600080fd5b6124ac868287016122bb565b9150509250925092565b600080600080608085870312156124cc57600080fd5b6124d5856121ea565b93506124e3602086016121ea565b92506040850135915060608501356001600160401b0381111561250557600080fd5b8501601f8101871361251657600080fd5b61252587823560208401612246565b91505092959194509250565b60008083601f84011261254357600080fd5b5081356001600160401b0381111561255a57600080fd5b60208301915083602082850101111561257257600080fd5b9250929050565b600080600080600080600080600080600060e08c8e03121561259a57600080fd5b6125a38c6121ea565b9a506001600160401b0360208d01358110156125be57600080fd5b6125ce8e60208f01358f01612531565b909b50995060408d01358110156125e457600080fd5b6125f48e60408f01358f01612531565b909950975060608d013581101561260a57600080fd5b61261a8e60608f01358f01612531565b909750955060808d0135945060a08d0135935060c08d013581101561263e57600080fd5b5061264f8d60c08e01358e01612531565b81935080925050509295989b509295989b9093969950565b6000806040838503121561267a57600080fd5b612683836121ea565b915061239d602084016121ea565b634e487b7160e01b600052603260045260246000fd5b600181811c908216806126bb57607f821691505b602082108103610a6d57634e487b7160e01b600052602260045260246000fd5b634e487b7160e01b600052601160045260246000fd5b81810381811115610634576106346126db565b600060018201612716576127166126db565b5060010190565b8082028115828204841417610634576106346126db565b60008261275157634e487b7160e01b600052601260045260246000fd5b500490565b60208082526026908201527f4661696c656420746f2073656e64207061796d656e74206261636b20746f207260408201526532b73a32b91760d11b606082015260800190565b601f821115610c41576000816000526020600020601f850160051c810160208610156127c55750805b601f850160051c820191505b81811015611147578281556001016127d1565b600019600383901b1c191660019190911b1790565b81516001600160401b0381111561281257612812612230565b6128268161282084546126a7565b8461279c565b602080601f83116001811461285557600084156128435750858301515b61284d85826127e4565b865550611147565b600085815260208120601f198616915b8281101561288457888601518255948401946001909101908401612865565b50858210156128a25787850151600019600388901b60f8161c191681555b5050505050600190811b01905550565b6020808252602d908201527f4552433732313a2063616c6c6572206973206e6f7420746f6b656e206f776e6560408201526c1c881bdc88185c1c1c9bdd9959609a1b606082015260800190565b602080825260159082015274125b9d985b1a59081c995b9d185b081c195c9a5bd9605a1b604082015260600190565b80820180821115610634576106346126db565b602080825260189082015277115490cdcc8c4e881a5b9d985b1a59081d1bdad95b88125160421b604082015260600190565b60008351612985818460208801612064565b835190830190612999818360208801612064565b01949350505050565b6001600160401b038311156129b9576129b9612230565b6129cd836129c783546126a7565b8361279c565b6000601f8411600181146129fb57600085156129e95750838201355b6129f386826127e4565b845550610e68565b600083815260209020601f19861690835b82811015612a2c5786850135825560209485019460019092019101612a0c565b5086821015612a495760001960f88860031b161c19848701351681555b505060018560011b0183555050505050565b60208082526025908201527f4552433732313a207472616e736665722066726f6d20696e636f72726563742060408201526437bbb732b960d91b606082015260800190565b60208082526032908201527f4552433732313a207472616e7366657220746f206e6f6e20455243373231526560408201527131b2b4bb32b91034b6b83632b6b2b73a32b960711b606082015260800190565b6020808252601c908201527b115490cdcc8c4e881d1bdad95b88185b1c9958591e481b5a5b9d195960221b604082015260600190565b6001600160a01b0385811682528416602082015260408101839052608060608201819052600090612b5b90830184612088565b9695505050505050565b600060208284031215612b7757600080fd5b81516116c68161201856feddf252ad1be2c89b69c2b068fc378daa952ba7f163c4a11628f55a4df523b3efa26469706673582212208ca0d69891e4b803fdaec447d756926d316e2b15137b2a75ee6a9a04c304aee364736f6c63430008180033",
  "linkReferences": {},
  "deployedLinkReferences": {}
}