{
  "contractName": "VehicleSharing",
  "abi": [
    {
      "inputs": [],
      "stateMutability": "nonpayable",
      "type": "constructor"
    },
    {
      "anonymous": false,
      "inputs": [
        {
          "indexed": true,
          "internalType": "address",
          "name": "owner",
          "type": "address"
        },
        {
          "indexed": true,
          "internalType": "address",
          "name": "approved",
          "type": "address"
        },
        {
          "indexed": true,
          "internalType": "uint256",
          "name": "tokenId",
          "type": "uint256"
        }
      ],
      "name": "Approval",
      "type": "event"
    },
    {
      "anonymous": false,
      "inputs": [
        {
          "indexed": true,
          "internalType": "address",
          "name": "owner",
          "type": "address"
        },
        {
          "indexed": true,
          "internalType": "address",
          "name": "operator",
          "type": "address"
        },
        {
          "indexed": false,
          "internalType": "bool",
          "name": "approved",
          "type": "bool"
        }
      ],
      "name": "ApprovalForAll",
      "type": "event"
    },
    {
      "anonymous": false,
      "inputs": [
        {
          "indexed": false,
          "internalType": "uint256",
          "name": "payment",
          "type": "uint256"
        }
      ],
      "name": "Payment",
      "type": "event"
    },
    {
      "anonymous": false,
      "inputs": [
        {
          "indexed": false,
          "internalType": "uint256",
          "name": "rent_cost",
          "type": "uint256"
        }
      ],
      "name": "RentCost",
      "type": "event"
    },
    {
      "anonymous": false,
      "inputs": [
        {
          "indexed": true,
          "internalType": "address",
          "name": "from",
          "type": "address"
        },
        {
          "indexed": true,
          "internalType": "address",
          "name": "to",
          "type": "address"
        },
        {
          "indexed": true,
          "internalType": "uint256",
          "name": "tokenId",
          "type": "uint256"
        }
      ],
      "name": "Transfer",
      "type": "event"
    },
    {
      "inputs": [
        {
          "internalType": "address",
          "name": "",
          "type": "address"
        }
      ],
      "name": "_users",
      "outputs": [
        {
          "internalType": "string",
          "name": "name",
          "type": "string"
        },
        {
          "internalType": "string",
          "name": "aadhar",
          "type": "string"
        },
        {
          "internalType": "address",
          "name": "userAddress",
          "type": "address"
        }
      ],
      "stateMutability": "view",
      "type": "function"
    },
    {
      "inputs": [
        {
          "internalType": "uint256",
          "name": "",
          "type": "uint256"
        }
      ],
      "name": "_vehicles",
      "outputs": [
        {
          "internalType": "uint256",
          "name": "id",
          "type": "uint256"
        },
        {
          "internalType": "uint256",
          "name": "pricePerHour",
          "type": "uint256"
        },
        {
          "internalType": "address",
          "name": "currentRenter",
          "type": "address"
        },
        {
          "internalType": "address",
          "name": "owner",
          "type": "address"
        },
        {
          "internalType": "bool",
          "name": "isAvailable",
          "type": "bool"
        },
        {
          "internalType": "uint256",
          "name": "deposit_bal",
          "type": "uint256"
        },
        {
          "internalType": "uint256",
          "name": "temp_bal",
          "type": "uint256"
        },
        {
          "internalType": "uint256",
          "name": "start",
          "type": "uint256"
        },
        {
          "internalType": "uint256",
          "name": "end",
          "type": "uint256"
        },
        {
          "internalType": "uint256",
          "name": "ratings",
          "type": "uint256"
        }
      ],
      "stateMutability": "view",
      "type": "function"
    },
    {
      "inputs": [
        {
          "internalType": "address",
          "name": "to",
          "type": "address"
        },
        {
          "internalType": "uint256",
          "name": "tokenId",
          "type": "uint256"
        }
      ],
      "name": "approve",
      "outputs": [],
      "stateMutability": "nonpayable",
      "type": "function"
    },
    {
      "inputs": [
        {
          "internalType": "address",
          "name": "owner",
          "type": "address"
        }
      ],
      "name": "balanceOf",
      "outputs": [
        {
          "internalType": "uint256",
          "name": "",
          "type": "uint256"
        }
      ],
      "stateMutability": "view",
      "type": "function"
    },
    {
      "inputs": [
        {
          "internalType": "uint256",
          "name": "tokenId",
          "type": "uint256"
        }
      ],
      "name": "getApproved",
      "outputs": [
        {
          "internalType": "address",
          "name": "",
          "type": "address"
        }
      ],
      "stateMutability": "view",
      "type": "function"
    },
    {
      "inputs": [
        {
          "internalType": "address",
          "name": "owner",
          "type": "address"
        },
        {
          "internalType": "address",
          "name": "operator",
          "type": "address"
        }
      ],
      "name": "isApprovedForAll",
      "outputs": [
        {
          "internalType": "bool",
          "name": "",
          "type": "bool"
        }
      ],
      "stateMutability": "view",
      "type": "function"
    },
    {
      "inputs": [],
      "name": "manager",
      "outputs": [
        {
          "internalType": "address",
          "name": "",
          "type": "address"
        }
      ],
      "stateMutability": "view",
      "type": "function"
    },
    {
      "inputs": [],
      "name": "name",
      "outputs": [
        {
          "internalType": "string",
          "name": "",
          "type": "string"
        }
      ],
      "stateMutability": "view",
      "type": "function"
    },
    {
      "inputs": [
        {
          "internalType": "uint256",
          "name": "tokenId",
          "type": "uint256"
        }
      ],
      "name": "ownerOf",
      "outputs": [
        {
          "internalType": "address",
          "name": "",
          "type": "address"
        }
      ],
      "stateMutability": "view",
      "type": "function"
    },
    {
      "inputs": [
        {
          "internalType": "address",
          "name": "from",
          "type": "address"
        },
        {
          "internalType": "address",
          "name": "to",
          "type": "address"
        },
        {
          "internalType": "uint256",
          "name": "tokenId",
          "type": "uint256"
        }
      ],
      "name": "safeTransferFrom",
      "outputs": [],
      "stateMutability": "nonpayable",
      "type": "function"
    },
    {
      "inputs": [
        {
          "internalType": "address",
          "name": "from",
          "type": "address"
        },
        {
          "internalType": "address",
          "name": "to",
          "type": "address"
        },
        {
          "internalType": "uint256",
          "name": "tokenId",
          "type": "uint256"
        },
        {
          "internalType": "bytes",
          "name": "data",
          "type": "bytes"
        }
      ],
      "name": "safeTransferFrom",
      "outputs": [],
      "stateMutability": "nonpayable",
      "type": "function"
    },
    {
      "inputs": [
        {
          "internalType": "address",
          "name": "operator",
          "type": "address"
        },
        {
          "internalType": "bool",
          "name": "approved",
          "type": "bool"
        }
      ],
      "name": "setApprovalForAll",
      "outputs": [],
      "stateMutability": "nonpayable",
      "type": "function"
    },
    {
      "inputs": [
        {
          "internalType": "bytes4",
          "name": "interfaceId",
          "type": "bytes4"
        }
      ],
      "name": "supportsInterface",
      "outputs": [
        {
          "internalType": "bool",
          "name": "",
          "type": "bool"
        }
      ],
      "stateMutability": "view",
      "type": "function"
    },
    {
      "inputs": [],
      "name": "symbol",
      "outputs": [
        {
          "internalType": "string",
          "name": "",
          "type": "string"
        }
      ],
      "stateMutability": "view",
      "type": "function"
    },
    {
      "inputs": [
        {
          "internalType": "uint256",
          "name": "tokenId",
          "type": "uint256"
        }
      ],
      "name": "tokenURI",
      "outputs": [
        {
          "internalType": "string",
          "name": "",
          "type": "string"
        }
      ],
      "stateMutability": "view",
      "type": "function"
    },
    {
      "inputs": [
        {
          "internalType": "address",
          "name": "from",
          "type": "address"
        },
        {
          "internalType": "address",
          "name": "to",
          "type": "address"
        },
        {
          "internalType": "uint256",
          "name": "tokenId",
          "type": "uint256"
        }
      ],
      "name": "transferFrom",
      "outputs": [],
      "stateMutability": "nonpayable",
      "type": "function"
    },
    {
      "inputs": [
        {
          "internalType": "string",
          "name": "name",
          "type": "string"
        },
        {
          "internalType": "string",
          "name": "aadhar",
          "type": "string"
        }
      ],
      "name": "registerUser",
      "outputs": [],
      "stateMutability": "nonpayable",
      "type": "function"
    },
    {
      "inputs": [
        {
          "internalType": "address",
          "name": "owner",
          "type": "address"
        },
        {
          "internalType": "string",
          "name": "typeVehicle",
          "type": "string"
        },
        {
          "internalType": "string",
          "name": "make",
          "type": "string"
        },
        {
          "internalType": "string",
          "name": "model",
          "type": "string"
        },
        {
          "internalType": "uint256",
          "name": "pricePerHour",
          "type": "uint256"
        },
        {
          "internalType": "uint256",
          "name": "deposit_price",
          "type": "uint256"
        },
        {
          "internalType": "string",
          "name": "imageHash",
          "type": "string"
        }
      ],
      "name": "addVehicle",
      "outputs": [],
      "stateMutability": "nonpayable",
      "type": "function"
    },
    {
      "inputs": [
        {
          "internalType": "uint256",
          "name": "vehicleId",
          "type": "uint256"
        },
        {
          "internalType": "uint256",
          "name": "start",
          "type": "uint256"
        },
        {
          "internalType": "uint256",
          "name": "end",
          "type": "uint256"
        }
      ],
      "name": "calculateRentCost",
      "outputs": [
        {
          "internalType": "uint256",
          "name": "",
          "type": "uint256"
        },
        {
          "internalType": "address",
          "name": "",
          "type": "address"
        }
      ],
      "stateMutability": "view",
      "type": "function"
    },
    {
      "inputs": [
        {
          "internalType": "uint256",
          "name": "vehicleId",
          "type": "uint256"
        },
        {
          "internalType": "uint256",
          "name": "start",
          "type": "uint256"
        },
        {
          "internalType": "uint256",
          "name": "end",
          "type": "uint256"
        }
      ],
      "name": "rentVehicle",
      "outputs": [],
      "stateMutability": "payable",
      "type": "function"
    },
    {
      "inputs": [
        {
          "internalType": "uint256",
          "name": "vehicleId",
          "type": "uint256"
        }
      ],
      "name": "calculatePayment",
      "outputs": [
        {
          "internalType": "uint256",
          "name": "",
          "type": "uint256"
        },
        {
          "internalType": "address",
          "name": "",
          "type": "address"
        }
      ],
      "stateMutability": "view",
      "type": "function"
    },
    {
      "inputs": [
        {
          "internalType": "uint256",
          "name": "vehicleId",
          "type": "uint256"
        }
      ],
      "name": "returnVehicle",
      "outputs": [],
      "stateMutability": "payable",
      "type": "function"
    },
    {
      "inputs": [
        {
          "internalType": "address",
          "name": "account",
          "type": "address"
        }
      ],
      "name": "getBalance",
      "outputs": [
        {
          "internalType": "uint256",
          "name": "",
          "type": "uint256"
        }
      ],
      "stateMutability": "view",
      "type": "function"
    },
    {
      "inputs": [
        {
          "internalType": "uint256",
          "name": "vehicleId",
          "type": "uint256"
        }
      ],
      "name": "getVehicleDetails",
      "outputs": [
        {
          "internalType": "uint256",
          "name": "",
          "type": "uint256"
        },
        {
          "internalType": "string",
          "name": "",
          "type": "string"
        },
        {
          "internalType": "string",
          "name": "",
          "type": "string"
        },
        {
          "internalType": "string",
          "name": "",
          "type": "string"
        },
        {
          "internalType": "uint256",
          "name": "",
          "type": "uint256"
        },
        {
          "internalType": "uint256",
          "name": "",
          "type": "uint256"
        },
        {
          "internalType": "address",
          "name": "",
          "type": "address"
        },
        {
          "internalType": "address[]",
          "name": "",
          "type": "address[]"
        },
        {
          "internalType": "string",
          "name": "",
          "type": "string"
        },
        {
          "internalType": "bool",
          "name": "",
          "type": "bool"
        },
        {
          "internalType": "uint256",
          "name": "",
          "type": "uint256"
        }
      ],
      "stateMutability": "view",
      "type": "function"
    },
    {
      "inputs": [
        {
          "internalType": "uint256",
          "name": "vehicleId",
          "type": "uint256"
        },
        {
          "internalType": "uint256",
          "name": "rating",
          "type": "uint256"
        },
        {
          "internalType": "string",
          "name": "review",
          "type": "string"
        }
      ],
      "name": "rateVehicle",
      "outputs": [],
      "stateMutability": "nonpayable",
      "type": "function"
    },
    {
      "inputs": [],
      "name": "getVehicleIds",
      "outputs": [
        {
          "internalType": "uint256[]",
          "name": "",
          "type": "uint256[]"
        }
      ],
      "stateMutability": "view",
      "type": "function"
    },
    {
      "inputs": [
        {
          "internalType": "uint256",
          "name": "vehicleId",
          "type": "uint256"
        },
        {
          "internalType": "address",
          "name": "renter",
          "type": "address"
        }
      ],
      "name": "doesRenterExist",
      "outputs": [
        {
          "internalType": "bool",
          "name": "",
          "type": "bool"
        }
      ],
      "stateMutability": "view",
      "type": "function"
    },
    {
      "inputs": [
        {
          "internalType": "uint256",
          "name": "vehicleId",
          "type": "uint256"
        },
        {
          "internalType": "address",
          "name": "renter",
          "type": "address"
        }
      ],
      "name": "doesRenterRated",
      "outputs": [
        {
          "internalType": "bool",
          "name": "",
          "type": "bool"
        }
      ],
      "stateMutability": "view",
      "type": "function"
    }
  ],
  "bytecode": "0x60806040526000600a553480156200001657600080fd5b506040518060400160405280600c81526020017f56656869636c65546f6b656e00000000000000000000000000000000000000008152506040518060400160405280600281526020017f565400000000000000000000000000000000000000000000000000000000000081525081600090816200009491906200036a565b508060019081620000a691906200036a565b50505033600960006101000a81548173ffffffffffffffffffffffffffffffffffffffff021916908373ffffffffffffffffffffffffffffffffffffffff16021790555062000451565b600081519050919050565b7f4e487b7100000000000000000000000000000000000000000000000000000000600052604160045260246000fd5b7f4e487b7100000000000000000000000000000000000000000000000000000000600052602260045260246000fd5b600060028204905060018216806200017257607f821691505b6020821081036200018857620001876200012a565b5b50919050565b60008190508160005260206000209050919050565b60006020601f8301049050919050565b600082821b905092915050565b600060088302620001f27fffffffffffffffffffffffffffffffffffffffffffffffffffffffffffffffff82620001b3565b620001fe8683620001b3565b95508019841693508086168417925050509392505050565b6000819050919050565b6000819050919050565b60006200024b620002456200023f8462000216565b62000220565b62000216565b9050919050565b6000819050919050565b62000267836200022a565b6200027f620002768262000252565b848454620001c0565b825550505050565b600090565b6200029662000287565b620002a38184846200025c565b505050565b5b81811015620002cb57620002bf6000826200028c565b600181019050620002a9565b5050565b601f8211156200031a57620002e4816200018e565b620002ef84620001a3565b81016020851015620002ff578190505b620003176200030e85620001a3565b830182620002a8565b50505b505050565b600082821c905092915050565b60006200033f600019846008026200031f565b1980831691505092915050565b60006200035a83836200032c565b9150826002028217905092915050565b6200037582620000f0565b67ffffffffffffffff811115620003915762000390620000fb565b5b6200039d825462000159565b620003aa828285620002cf565b600060209050601f831160018114620003e25760008415620003cd578287015190505b620003d985826200034c565b86555062000449565b601f198416620003f2866200018e565b60005b828110156200041c57848901518255600182019150602085019450602081019050620003f5565b868310156200043c578489015162000438601f8916826200032c565b8355505b6001600288020188555050505b505050505050565b614ffa80620004616000396000f3fe6080604052600436106101b75760003560e01c80636352211e116100ec578063b88d4fde1161008a578063c9775a2e11610064578063c9775a2e14610674578063debd22ff146106b2578063e985e9c5146106db578063f8b2cb4f14610718576101b7565b8063b88d4fde146105c8578063c370d441146105f1578063c87b56dd14610637576101b7565b806395d89b41116100c657806395d89b411461050e578063a22cb46514610539578063a2578a6814610562578063a42321301461058b576101b7565b80636352211e1461045657806370a08231146104935780638c67f63a146104d0576101b7565b80631d2e4afd11610159578063390e8a7711610133578063390e8a77146103a75780633cacd7d6146103c357806342842e0e14610402578063481c6a751461042b576101b7565b80631d2e4afd1461031857806323b872dd1461034157806336b1b8f91461036a576101b7565b806306fdde031161019557806306fdde031461026b578063081812fc14610296578063095ea7b3146102d35780630d9f2496146102fc576101b7565b806301ffc9a7146101bc57806304314f49146101f957806306f1b2ee14610240575b600080fd5b3480156101c857600080fd5b506101e360048036038101906101de91906131f1565b610755565b6040516101f09190613239565b60405180910390f35b34801561020557600080fd5b50610220600480360381019061021b919061328a565b610837565b6040516102379b9a99989796959493929190613455565b60405180910390f35b34801561024c57600080fd5b50610255610c11565b60405161026291906135e1565b60405180910390f35b34801561027757600080fd5b50610280610cc7565b60405161028d9190613603565b60405180910390f35b3480156102a257600080fd5b506102bd60048036038101906102b8919061328a565b610d59565b6040516102ca9190613625565b60405180910390f35b3480156102df57600080fd5b506102fa60048036038101906102f5919061366c565b610d9f565b005b6103166004803603810190610311919061328a565b610eb6565b005b34801561032457600080fd5b5061033f600480360381019061033a91906137e1565b6111fc565b005b34801561034d57600080fd5b5061036860048036038101906103639190613859565b61137c565b005b34801561037657600080fd5b50610391600480360381019061038c91906138ac565b6113dc565b60405161039e9190613239565b60405180910390f35b6103c160048036038101906103bc91906138ec565b6114a4565b005b3480156103cf57600080fd5b506103ea60048036038101906103e5919061393f565b61179d565b6040516103f99392919061396c565b60405180910390f35b34801561040e57600080fd5b5061042960048036038101906104249190613859565b6118f7565b005b34801561043757600080fd5b50610440611917565b60405161044d9190613625565b60405180910390f35b34801561046257600080fd5b5061047d6004803603810190610478919061328a565b61193d565b60405161048a9190613625565b60405180910390f35b34801561049f57600080fd5b506104ba60048036038101906104b5919061393f565b6119c3565b6040516104c791906139b1565b60405180910390f35b3480156104dc57600080fd5b506104f760048036038101906104f2919061328a565b611a7a565b6040516105059291906139cc565b60405180910390f35b34801561051a57600080fd5b50610523611b03565b6040516105309190613603565b60405180910390f35b34801561054557600080fd5b50610560600480360381019061055b9190613a21565b611b95565b005b34801561056e57600080fd5b5061058960048036038101906105849190613a61565b611bab565b005b34801561059757600080fd5b506105b260048036038101906105ad91906138ac565b611dab565b6040516105bf9190613239565b60405180910390f35b3480156105d457600080fd5b506105ef60048036038101906105ea9190613b71565b611e73565b005b3480156105fd57600080fd5b506106186004803603810190610613919061328a565b611ed5565b60405161062e9a99989796959493929190613bf4565b60405180910390f35b34801561064357600080fd5b5061065e6004803603810190610659919061328a565b611f76565b60405161066b9190613603565b60405180910390f35b34801561068057600080fd5b5061069b600480360381019061069691906138ec565b611fde565b6040516106a99291906139cc565b60405180910390f35b3480156106be57600080fd5b506106d960048036038101906106d49190613cf0565b612086565b005b3480156106e757600080fd5b5061070260048036038101906106fd9190613e14565b612357565b60405161070f9190613239565b60405180910390f35b34801561072457600080fd5b5061073f600480360381019061073a919061393f565b6123eb565b60405161074c91906139b1565b60405180910390f35b60007f80ac58cd000000000000000000000000000000000000000000000000000000007bffffffffffffffffffffffffffffffffffffffffffffffffffffffff1916827bffffffffffffffffffffffffffffffffffffffffffffffffffffffff1916148061082057507f5b5e139f000000000000000000000000000000000000000000000000000000007bffffffffffffffffffffffffffffffffffffffffffffffffffffffff1916827bffffffffffffffffffffffffffffffffffffffffffffffffffffffff1916145b80610830575061082f8261240c565b5b9050919050565b6000606080606060008060006060806000806000600860008e8152602001908152602001600020905080600001548160010160008154811061087c5761087b613e54565b5b906000526020600020018260010160018154811061089d5761089c613e54565b5b90600052602060002001836001016002815481106108be576108bd613e54565b5b90600052602060002001846002015485600701548660030160009054906101000a900473ffffffffffffffffffffffffffffffffffffffff16876005018860010160038154811061091257610911613e54565b5b906000526020600020018960060160009054906101000a900460ff168a600b015489805461093f90613eb2565b80601f016020809104026020016040519081016040528092919081815260200182805461096b90613eb2565b80156109b85780601f1061098d576101008083540402835291602001916109b8565b820191906000526020600020905b81548152906001019060200180831161099b57829003601f168201915b505050505099508880546109cb90613eb2565b80601f01602080910402602001604051908101604052809291908181526020018280546109f790613eb2565b8015610a445780601f10610a1957610100808354040283529160200191610a44565b820191906000526020600020905b815481529060010190602001808311610a2757829003601f168201915b50505050509850878054610a5790613eb2565b80601f0160208091040260200160405190810160405280929190818152602001828054610a8390613eb2565b8015610ad05780601f10610aa557610100808354040283529160200191610ad0565b820191906000526020600020905b815481529060010190602001808311610ab357829003601f168201915b5050505050975083805480602002602001604051908101604052809291908181526020018280548015610b5857602002820191906000526020600020905b8160009054906101000a900473ffffffffffffffffffffffffffffffffffffffff1673ffffffffffffffffffffffffffffffffffffffff1681526020019060010190808311610b0e575b50505050509350828054610b6b90613eb2565b80601f0160208091040260200160405190810160405280929190818152602001828054610b9790613eb2565b8015610be45780601f10610bb957610100808354040283529160200191610be4565b820191906000526020600020905b815481529060010190602001808311610bc757829003601f168201915b505050505092509b509b509b509b509b509b509b509b509b509b509b505091939597999b90929496989a50565b60606000610c1f6006612476565b67ffffffffffffffff811115610c3857610c376136b6565b5b604051908082528060200260200182016040528015610c665781602001602082028036833780820191505090505b5090506000600190505b610c7a6006612476565b8111610cbf578082600183610c8f9190613f12565b81518110610ca057610c9f613e54565b5b6020026020010181815250508080610cb790613f46565b915050610c70565b508091505090565b606060008054610cd690613eb2565b80601f0160208091040260200160405190810160405280929190818152602001828054610d0290613eb2565b8015610d4f5780601f10610d2457610100808354040283529160200191610d4f565b820191906000526020600020905b815481529060010190602001808311610d3257829003601f168201915b5050505050905090565b6000610d6482612484565b6004600083815260200190815260200160002060009054906101000a900473ffffffffffffffffffffffffffffffffffffffff169050919050565b6000610daa8261193d565b90508073ffffffffffffffffffffffffffffffffffffffff168373ffffffffffffffffffffffffffffffffffffffff1603610e1a576040517f08c379a0000000000000000000000000000000000000000000000000000000008152600401610e1190614000565b60405180910390fd5b8073ffffffffffffffffffffffffffffffffffffffff16610e396124cf565b73ffffffffffffffffffffffffffffffffffffffff161480610e685750610e6781610e626124cf565b612357565b5b610ea7576040517f08c379a0000000000000000000000000000000000000000000000000000000008152600401610e9e90614092565b60405180910390fd5b610eb183836124d7565b505050565b60006008600083815260200190815260200160002090503373ffffffffffffffffffffffffffffffffffffffff168160030160009054906101000a900473ffffffffffffffffffffffffffffffffffffffff1673ffffffffffffffffffffffffffffffffffffffff1614610f5f576040517f08c379a0000000000000000000000000000000000000000000000000000000008152600401610f5690614124565b60405180910390fd5b60006236ee8082600901546103e842610f789190614144565b610f829190613f12565b8360020154610f919190614144565b610f9b91906141b5565b90507fd73298c59e2f8823f5313441b46ced5bddf204a2d4d72bdd904a6d6785e51ae981604051610fcc91906139b1565b60405180910390a160008260040160009054906101000a900473ffffffffffffffffffffffffffffffffffffffff1673ffffffffffffffffffffffffffffffffffffffff168260405161101e90614217565b60006040518083038185875af1925050503d806000811461105b576040519150601f19603f3d011682016040523d82523d6000602084013e611060565b606091505b50509050806110a4576040517f08c379a000000000000000000000000000000000000000000000000000000000815260040161109b9061429e565b60405180910390fd5b60003373ffffffffffffffffffffffffffffffffffffffff168385600801546110cd9190613f12565b6040516110d990614217565b60006040518083038185875af1925050503d8060008114611116576040519150601f19603f3d011682016040523d82523d6000602084013e61111b565b606091505b505090508061115f576040517f08c379a00000000000000000000000000000000000000000000000000000000081526004016111569061429e565b60405180910390fd5b60008460030160006101000a81548173ffffffffffffffffffffffffffffffffffffffff021916908373ffffffffffffffffffffffffffffffffffffffff16021790555060018460060160006101000a81548160ff0219169083151502179055506111f56111cc8661193d565b600960009054906101000a900473ffffffffffffffffffffffffffffffffffffffff1687612590565b5050505050565b600073ffffffffffffffffffffffffffffffffffffffff16600760003373ffffffffffffffffffffffffffffffffffffffff1673ffffffffffffffffffffffffffffffffffffffff16815260200190815260200160002060020160009054906101000a900473ffffffffffffffffffffffffffffffffffffffff1673ffffffffffffffffffffffffffffffffffffffff16146112cd576040517f08c379a00000000000000000000000000000000000000000000000000000000081526004016112c49061430a565b60405180910390fd5b6000600760003373ffffffffffffffffffffffffffffffffffffffff1673ffffffffffffffffffffffffffffffffffffffff16815260200190815260200160002090508281600001908161132191906144d6565b508181600101908161133391906144d6565b50338160020160006101000a81548173ffffffffffffffffffffffffffffffffffffffff021916908373ffffffffffffffffffffffffffffffffffffffff160217905550505050565b61138d6113876124cf565b82612889565b6113cc576040517f08c379a00000000000000000000000000000000000000000000000000000000081526004016113c39061461a565b60405180910390fd5b6113d7838383612590565b505050565b60008060086000858152602001908152602001600020905060005b8160050180549050811015611497578373ffffffffffffffffffffffffffffffffffffffff1682600501828154811061143357611432613e54565b5b9060005260206000200160009054906101000a900473ffffffffffffffffffffffffffffffffffffffff1673ffffffffffffffffffffffffffffffffffffffff16036114845760019250505061149e565b808061148f90613f46565b9150506113f7565b5060009150505b92915050565b8082106114e6576040517f08c379a00000000000000000000000000000000000000000000000000000000081526004016114dd90614686565b60405180910390fd5b6000600860008581526020019081526020016000209050600073ffffffffffffffffffffffffffffffffffffffff168160030160009054906101000a900473ffffffffffffffffffffffffffffffffffffffff1673ffffffffffffffffffffffffffffffffffffffff1614611590576040517f08c379a0000000000000000000000000000000000000000000000000000000008152600401611587906146f2565b60405180910390fd5b6000600760003373ffffffffffffffffffffffffffffffffffffffff1673ffffffffffffffffffffffffffffffffffffffff1681526020019081526020016000209050600073ffffffffffffffffffffffffffffffffffffffff168160020160009054906101000a900473ffffffffffffffffffffffffffffffffffffffff1673ffffffffffffffffffffffffffffffffffffffff1603611666576040517f08c379a000000000000000000000000000000000000000000000000000000000815260040161165d9061475e565b60405180910390fd5b60006236ee8085856116789190613f12565b84600201546116879190614144565b61169191906141b5565b83600701546116a0919061477e565b9050808360080181905550338360030160006101000a81548173ffffffffffffffffffffffffffffffffffffffff021916908373ffffffffffffffffffffffffffffffffffffffff16021790555082600501339080600181540180825580915050600190039060005260206000200160009091909190916101000a81548173ffffffffffffffffffffffffffffffffffffffff021916908373ffffffffffffffffffffffffffffffffffffffff16021790555060008360060160006101000a81548160ff0219169083151502179055508483600901819055508383600a018190555061179561178e8761193d565b3388612590565b505050505050565b60076020528060005260406000206000915090508060000180546117c090613eb2565b80601f01602080910402602001604051908101604052809291908181526020018280546117ec90613eb2565b80156118395780601f1061180e57610100808354040283529160200191611839565b820191906000526020600020905b81548152906001019060200180831161181c57829003601f168201915b50505050509080600101805461184e90613eb2565b80601f016020809104026020016040519081016040528092919081815260200182805461187a90613eb2565b80156118c75780601f1061189c576101008083540402835291602001916118c7565b820191906000526020600020905b8154815290600101906020018083116118aa57829003601f168201915b5050505050908060020160009054906101000a900473ffffffffffffffffffffffffffffffffffffffff16905083565b61191283838360405180602001604052806000815250611e73565b505050565b600960009054906101000a900473ffffffffffffffffffffffffffffffffffffffff1681565b6000806119498361291e565b9050600073ffffffffffffffffffffffffffffffffffffffff168173ffffffffffffffffffffffffffffffffffffffff16036119ba576040517f08c379a00000000000000000000000000000000000000000000000000000000081526004016119b1906147fe565b60405180910390fd5b80915050919050565b60008073ffffffffffffffffffffffffffffffffffffffff168273ffffffffffffffffffffffffffffffffffffffff1603611a33576040517f08c379a0000000000000000000000000000000000000000000000000000000008152600401611a2a90614890565b60405180910390fd5b600360008373ffffffffffffffffffffffffffffffffffffffff1673ffffffffffffffffffffffffffffffffffffffff168152602001908152602001600020549050919050565b600080600060086000858152602001908152602001600020905060006236ee8082600901546103e842611aad9190614144565b611ab79190613f12565b8360020154611ac69190614144565b611ad091906141b5565b9050808260040160009054906101000a900473ffffffffffffffffffffffffffffffffffffffff16935093505050915091565b606060018054611b1290613eb2565b80601f0160208091040260200160405190810160405280929190818152602001828054611b3e90613eb2565b8015611b8b5780601f10611b6057610100808354040283529160200191611b8b565b820191906000526020600020905b815481529060010190602001808311611b6e57829003601f168201915b5050505050905090565b611ba7611ba06124cf565b838361295b565b5050565b60018210158015611bbd575060058211155b611bfc576040517f08c379a0000000000000000000000000000000000000000000000000000000008152600401611bf3906148fc565b60405180910390fd5b6000600860008581526020019081526020016000209050611c1d84336113dc565b611c5c576040517f08c379a0000000000000000000000000000000000000000000000000000000008152600401611c539061498e565b60405180910390fd5b60001515611c6a8533611dab565b151514611cac576040517f08c379a0000000000000000000000000000000000000000000000000000000008152600401611ca390614a20565b60405180910390fd5b600a6000815480929190611cbf90613f46565b919050555061271083611cd29190614144565b81600b016000828254611ce5919061477e565b92505081905550600a5481600b016000828254611d0291906141b5565b9250508190555080600c01339080600181540180825580915050600190039060005260206000200160009091909190916101000a81548173ffffffffffffffffffffffffffffffffffffffff021916908373ffffffffffffffffffffffffffffffffffffffff16021790555080600d0182908060018154018082558091505060019003906000526020600020016000909190919091509081611da491906144d6565b5050505050565b60008060086000858152602001908152602001600020905060005b81600c0180549050811015611e66578373ffffffffffffffffffffffffffffffffffffffff1682600c018281548110611e0257611e01613e54565b5b9060005260206000200160009054906101000a900473ffffffffffffffffffffffffffffffffffffffff1673ffffffffffffffffffffffffffffffffffffffff1603611e5357600192505050611e6d565b8080611e5e90613f46565b915050611dc6565b5060009150505b92915050565b611e84611e7e6124cf565b83612889565b611ec3576040517f08c379a0000000000000000000000000000000000000000000000000000000008152600401611eba9061461a565b60405180910390fd5b611ecf84848484612ac7565b50505050565b60086020528060005260406000206000915090508060000154908060020154908060030160009054906101000a900473ffffffffffffffffffffffffffffffffffffffff16908060040160009054906101000a900473ffffffffffffffffffffffffffffffffffffffff16908060060160009054906101000a900460ff169080600701549080600801549080600901549080600a01549080600b015490508a565b6060611f8182612484565b6000611f8b612b23565b90506000815111611fab5760405180602001604052806000815250611fd6565b80611fb584612b3a565b604051602001611fc6929190614a7c565b6040516020818303038152906040525b915050919050565b600080828410612023576040517f08c379a000000000000000000000000000000000000000000000000000000000815260040161201a90614686565b60405180910390fd5b600060086000878152602001908152602001600020905060006236ee80868661204c9190613f12565b836002015461205b9190614144565b61206591906141b5565b8260070154612074919061477e565b90508030935093505050935093915050565b600960009054906101000a900473ffffffffffffffffffffffffffffffffffffffff1673ffffffffffffffffffffffffffffffffffffffff163373ffffffffffffffffffffffffffffffffffffffff1614612116576040517f08c379a000000000000000000000000000000000000000000000000000000000815260040161210d90614aec565b60405180910390fd5b6121206006612c08565b600061212c6006612476565b90506121383382612c1e565b60006008600083815260200190815260200160002090508c8160040160006101000a81548173ffffffffffffffffffffffffffffffffffffffff021916908373ffffffffffffffffffffffffffffffffffffffff160217905550818160000181905550806001018c8c909180600181540180825580915050600190039060005260206000200160009091929091929091929091925091826121da929190614b17565b50806001018a8a9091806001815401808255809150506001900390600052602060002001600090919290919290919290919250918261221a929190614b17565b508060010188889091806001815401808255809150506001900390600052602060002001600090919290919290919290919250918261225a929190614b17565b508060010184849091806001815401808255809150506001900390600052602060002001600090919290919290919290919250918261229a929190614b17565b50670de0b6b3a7640000866122af9190614144565b8160020181905550670de0b6b3a7640000856122cb9190614144565b816007018190555060008160030160006101000a81548173ffffffffffffffffffffffffffffffffffffffff021916908373ffffffffffffffffffffffffffffffffffffffff16021790555060018160060160006101000a81548160ff02191690831515021790555060008160080181905550600081600b018190555050505050505050505050505050565b6000600560008473ffffffffffffffffffffffffffffffffffffffff1673ffffffffffffffffffffffffffffffffffffffff16815260200190815260200160002060008373ffffffffffffffffffffffffffffffffffffffff1673ffffffffffffffffffffffffffffffffffffffff16815260200190815260200160002060009054906101000a900460ff16905092915050565b60008173ffffffffffffffffffffffffffffffffffffffff16319050919050565b60007f01ffc9a7000000000000000000000000000000000000000000000000000000007bffffffffffffffffffffffffffffffffffffffffffffffffffffffff1916827bffffffffffffffffffffffffffffffffffffffffffffffffffffffff1916149050919050565b600081600001549050919050565b61248d81612e3b565b6124cc576040517f08c379a00000000000000000000000000000000000000000000000000000000081526004016124c3906147fe565b60405180910390fd5b50565b600033905090565b816004600083815260200190815260200160002060006101000a81548173ffffffffffffffffffffffffffffffffffffffff021916908373ffffffffffffffffffffffffffffffffffffffff160217905550808273ffffffffffffffffffffffffffffffffffffffff1661254a8361193d565b73ffffffffffffffffffffffffffffffffffffffff167f8c5be1e5ebec7d5bd14f71427d1e84f3dd0314c0f7b2291e5b200ac8c7c3b92560405160405180910390a45050565b8273ffffffffffffffffffffffffffffffffffffffff166125b08261193d565b73ffffffffffffffffffffffffffffffffffffffff1614612606576040517f08c379a00000000000000000000000000000000000000000000000000000000081526004016125fd90614c59565b60405180910390fd5b600073ffffffffffffffffffffffffffffffffffffffff168273ffffffffffffffffffffffffffffffffffffffff1603612675576040517f08c379a000000000000000000000000000000000000000000000000000000000815260040161266c90614ceb565b60405180910390fd5b6126828383836001612e7c565b8273ffffffffffffffffffffffffffffffffffffffff166126a28261193d565b73ffffffffffffffffffffffffffffffffffffffff16146126f8576040517f08c379a00000000000000000000000000000000000000000000000000000000081526004016126ef90614c59565b60405180910390fd5b6004600082815260200190815260200160002060006101000a81549073ffffffffffffffffffffffffffffffffffffffff02191690556001600360008573ffffffffffffffffffffffffffffffffffffffff1673ffffffffffffffffffffffffffffffffffffffff168152602001908152602001600020600082825403925050819055506001600360008473ffffffffffffffffffffffffffffffffffffffff1673ffffffffffffffffffffffffffffffffffffffff16815260200190815260200160002060008282540192505081905550816002600083815260200190815260200160002060006101000a81548173ffffffffffffffffffffffffffffffffffffffff021916908373ffffffffffffffffffffffffffffffffffffffff160217905550808273ffffffffffffffffffffffffffffffffffffffff168473ffffffffffffffffffffffffffffffffffffffff167fddf252ad1be2c89b69c2b068fc378daa952ba7f163c4a11628f55a4df523b3ef60405160405180910390a46128848383836001612e82565b505050565b6000806128958361193d565b90508073ffffffffffffffffffffffffffffffffffffffff168473ffffffffffffffffffffffffffffffffffffffff1614806128d757506128d68185612357565b5b8061291557508373ffffffffffffffffffffffffffffffffffffffff166128fd84610d59565b73ffffffffffffffffffffffffffffffffffffffff16145b91505092915050565b60006002600083815260200190815260200160002060009054906101000a900473ffffffffffffffffffffffffffffffffffffffff169050919050565b8173ffffffffffffffffffffffffffffffffffffffff168373ffffffffffffffffffffffffffffffffffffffff16036129c9576040517f08c379a00000000000000000000000000000000000000000000000000000000081526004016129c090614d57565b60405180910390fd5b80600560008573ffffffffffffffffffffffffffffffffffffffff1673ffffffffffffffffffffffffffffffffffffffff16815260200190815260200160002060008473ffffffffffffffffffffffffffffffffffffffff1673ffffffffffffffffffffffffffffffffffffffff16815260200190815260200160002060006101000a81548160ff0219169083151502179055508173ffffffffffffffffffffffffffffffffffffffff168373ffffffffffffffffffffffffffffffffffffffff167f17307eab39ab6107e8899845ad3d59bd9653f200f220920489ca2b5937696c3183604051612aba9190613239565b60405180910390a3505050565b612ad2848484612590565b612ade84848484612e88565b612b1d576040517f08c379a0000000000000000000000000000000000000000000000000000000008152600401612b1490614de9565b60405180910390fd5b50505050565b606060405180602001604052806000815250905090565b606060006001612b498461300f565b01905060008167ffffffffffffffff811115612b6857612b676136b6565b5b6040519080825280601f01601f191660200182016040528015612b9a5781602001600182028036833780820191505090505b509050600082602001820190505b600115612bfd578080600190039150507f3031323334353637383961626364656600000000000000000000000000000000600a86061a8153600a8581612bf157612bf0614186565b5b04945060008503612ba8575b819350505050919050565b6001816000016000828254019250508190555050565b600073ffffffffffffffffffffffffffffffffffffffff168273ffffffffffffffffffffffffffffffffffffffff1603612c8d576040517f08c379a0000000000000000000000000000000000000000000000000000000008152600401612c8490614e55565b60405180910390fd5b612c9681612e3b565b15612cd6576040517f08c379a0000000000000000000000000000000000000000000000000000000008152600401612ccd90614ec1565b60405180910390fd5b612ce4600083836001612e7c565b612ced81612e3b565b15612d2d576040517f08c379a0000000000000000000000000000000000000000000000000000000008152600401612d2490614ec1565b60405180910390fd5b6001600360008473ffffffffffffffffffffffffffffffffffffffff1673ffffffffffffffffffffffffffffffffffffffff16815260200190815260200160002060008282540192505081905550816002600083815260200190815260200160002060006101000a81548173ffffffffffffffffffffffffffffffffffffffff021916908373ffffffffffffffffffffffffffffffffffffffff160217905550808273ffffffffffffffffffffffffffffffffffffffff16600073ffffffffffffffffffffffffffffffffffffffff167fddf252ad1be2c89b69c2b068fc378daa952ba7f163c4a11628f55a4df523b3ef60405160405180910390a4612e37600083836001612e82565b5050565b60008073ffffffffffffffffffffffffffffffffffffffff16612e5d8361291e565b73ffffffffffffffffffffffffffffffffffffffff1614159050919050565b50505050565b50505050565b6000612ea98473ffffffffffffffffffffffffffffffffffffffff16613162565b15613002578373ffffffffffffffffffffffffffffffffffffffff1663150b7a02612ed26124cf565b8786866040518563ffffffff1660e01b8152600401612ef49493929190614f36565b6020604051808303816000875af1925050508015612f3057506040513d601f19601f82011682018060405250810190612f2d9190614f97565b60015b612fb2573d8060008114612f60576040519150601f19603f3d011682016040523d82523d6000602084013e612f65565b606091505b506000815103612faa576040517f08c379a0000000000000000000000000000000000000000000000000000000008152600401612fa190614de9565b60405180910390fd5b805181602001fd5b63150b7a0260e01b7bffffffffffffffffffffffffffffffffffffffffffffffffffffffff1916817bffffffffffffffffffffffffffffffffffffffffffffffffffffffff191614915050613007565b600190505b949350505050565b600080600090507a184f03e93ff9f4daa797ed6e38ed64bf6a1f010000000000000000831061306d577a184f03e93ff9f4daa797ed6e38ed64bf6a1f010000000000000000838161306357613062614186565b5b0492506040810190505b6d04ee2d6d415b85acef810000000083106130aa576d04ee2d6d415b85acef810000000083816130a05761309f614186565b5b0492506020810190505b662386f26fc1000083106130d957662386f26fc1000083816130cf576130ce614186565b5b0492506010810190505b6305f5e1008310613102576305f5e10083816130f8576130f7614186565b5b0492506008810190505b612710831061312757612710838161311d5761311c614186565b5b0492506004810190505b6064831061314a57606483816131405761313f614186565b5b0492506002810190505b600a8310613159576001810190505b80915050919050565b6000808273ffffffffffffffffffffffffffffffffffffffff163b119050919050565b6000604051905090565b600080fd5b600080fd5b60007fffffffff0000000000000000000000000000000000000000000000000000000082169050919050565b6131ce81613199565b81146131d957600080fd5b50565b6000813590506131eb816131c5565b92915050565b6000602082840312156132075761320661318f565b5b6000613215848285016131dc565b91505092915050565b60008115159050919050565b6132338161321e565b82525050565b600060208201905061324e600083018461322a565b92915050565b6000819050919050565b61326781613254565b811461327257600080fd5b50565b6000813590506132848161325e565b92915050565b6000602082840312156132a05761329f61318f565b5b60006132ae84828501613275565b91505092915050565b6132c081613254565b82525050565b600081519050919050565b600082825260208201905092915050565b60005b838110156133005780820151818401526020810190506132e5565b60008484015250505050565b6000601f19601f8301169050919050565b6000613328826132c6565b61333281856132d1565b93506133428185602086016132e2565b61334b8161330c565b840191505092915050565b600073ffffffffffffffffffffffffffffffffffffffff82169050919050565b600061338182613356565b9050919050565b61339181613376565b82525050565b600081519050919050565b600082825260208201905092915050565b6000819050602082019050919050565b6133cc81613376565b82525050565b60006133de83836133c3565b60208301905092915050565b6000602082019050919050565b600061340282613397565b61340c81856133a2565b9350613417836133b3565b8060005b8381101561344857815161342f88826133d2565b975061343a836133ea565b92505060018101905061341b565b5085935050505092915050565b60006101608201905061346b600083018e6132b7565b818103602083015261347d818d61331d565b90508181036040830152613491818c61331d565b905081810360608301526134a5818b61331d565b90506134b4608083018a6132b7565b6134c160a08301896132b7565b6134ce60c0830188613388565b81810360e08301526134e081876133f7565b90508181036101008301526134f5818661331d565b905061350561012083018561322a565b6135136101408301846132b7565b9c9b505050505050505050505050565b600081519050919050565b600082825260208201905092915050565b6000819050602082019050919050565b61355881613254565b82525050565b600061356a838361354f565b60208301905092915050565b6000602082019050919050565b600061358e82613523565b613598818561352e565b93506135a38361353f565b8060005b838110156135d45781516135bb888261355e565b97506135c683613576565b9250506001810190506135a7565b5085935050505092915050565b600060208201905081810360008301526135fb8184613583565b905092915050565b6000602082019050818103600083015261361d818461331d565b905092915050565b600060208201905061363a6000830184613388565b92915050565b61364981613376565b811461365457600080fd5b50565b60008135905061366681613640565b92915050565b600080604083850312156136835761368261318f565b5b600061369185828601613657565b92505060206136a285828601613275565b9150509250929050565b600080fd5b600080fd5b7f4e487b7100000000000000000000000000000000000000000000000000000000600052604160045260246000fd5b6136ee8261330c565b810181811067ffffffffffffffff8211171561370d5761370c6136b6565b5b80604052505050565b6000613720613185565b905061372c82826136e5565b919050565b600067ffffffffffffffff82111561374c5761374b6136b6565b5b6137558261330c565b9050602081019050919050565b82818337600083830152505050565b600061378461377f84613731565b613716565b9050828152602081018484840111156137a05761379f6136b1565b5b6137ab848285613762565b509392505050565b600082601f8301126137c8576137c76136ac565b5b81356137d8848260208601613771565b91505092915050565b600080604083850312156137f8576137f761318f565b5b600083013567ffffffffffffffff81111561381657613815613194565b5b613822858286016137b3565b925050602083013567ffffffffffffffff81111561384357613842613194565b5b61384f858286016137b3565b9150509250929050565b6000806000606084860312156138725761387161318f565b5b600061388086828701613657565b935050602061389186828701613657565b92505060406138a286828701613275565b9150509250925092565b600080604083850312156138c3576138c261318f565b5b60006138d185828601613275565b92505060206138e285828601613657565b9150509250929050565b6000806000606084860312156139055761390461318f565b5b600061391386828701613275565b935050602061392486828701613275565b925050604061393586828701613275565b9150509250925092565b6000602082840312156139555761395461318f565b5b600061396384828501613657565b91505092915050565b60006060820190508181036000830152613986818661331d565b9050818103602083015261399a818561331d565b90506139a96040830184613388565b949350505050565b60006020820190506139c660008301846132b7565b92915050565b60006040820190506139e160008301856132b7565b6139ee6020830184613388565b9392505050565b6139fe8161321e565b8114613a0957600080fd5b50565b600081359050613a1b816139f5565b92915050565b60008060408385031215613a3857613a3761318f565b5b6000613a4685828601613657565b9250506020613a5785828601613a0c565b9150509250929050565b600080600060608486031215613a7a57613a7961318f565b5b6000613a8886828701613275565b9350506020613a9986828701613275565b925050604084013567ffffffffffffffff811115613aba57613ab9613194565b5b613ac6868287016137b3565b9150509250925092565b600067ffffffffffffffff821115613aeb57613aea6136b6565b5b613af48261330c565b9050602081019050919050565b6000613b14613b0f84613ad0565b613716565b905082815260208101848484011115613b3057613b2f6136b1565b5b613b3b848285613762565b509392505050565b600082601f830112613b5857613b576136ac565b5b8135613b68848260208601613b01565b91505092915050565b60008060008060808587031215613b8b57613b8a61318f565b5b6000613b9987828801613657565b9450506020613baa87828801613657565b9350506040613bbb87828801613275565b925050606085013567ffffffffffffffff811115613bdc57613bdb613194565b5b613be887828801613b43565b91505092959194509250565b600061014082019050613c0a600083018d6132b7565b613c17602083018c6132b7565b613c24604083018b613388565b613c31606083018a613388565b613c3e608083018961322a565b613c4b60a08301886132b7565b613c5860c08301876132b7565b613c6560e08301866132b7565b613c736101008301856132b7565b613c816101208301846132b7565b9b9a5050505050505050505050565b600080fd5b600080fd5b60008083601f840112613cb057613caf6136ac565b5b8235905067ffffffffffffffff811115613ccd57613ccc613c90565b5b602083019150836001820283011115613ce957613ce8613c95565b5b9250929050565b600080600080600080600080600080600060e08c8e031215613d1557613d1461318f565b5b6000613d238e828f01613657565b9b505060208c013567ffffffffffffffff811115613d4457613d43613194565b5b613d508e828f01613c9a565b9a509a505060408c013567ffffffffffffffff811115613d7357613d72613194565b5b613d7f8e828f01613c9a565b985098505060608c013567ffffffffffffffff811115613da257613da1613194565b5b613dae8e828f01613c9a565b96509650506080613dc18e828f01613275565b94505060a0613dd28e828f01613275565b93505060c08c013567ffffffffffffffff811115613df357613df2613194565b5b613dff8e828f01613c9a565b92509250509295989b509295989b9093969950565b60008060408385031215613e2b57613e2a61318f565b5b6000613e3985828601613657565b9250506020613e4a85828601613657565b9150509250929050565b7f4e487b7100000000000000000000000000000000000000000000000000000000600052603260045260246000fd5b7f4e487b7100000000000000000000000000000000000000000000000000000000600052602260045260246000fd5b60006002820490506001821680613eca57607f821691505b602082108103613edd57613edc613e83565b5b50919050565b7f4e487b7100000000000000000000000000000000000000000000000000000000600052601160045260246000fd5b6000613f1d82613254565b9150613f2883613254565b9250828203905081811115613f4057613f3f613ee3565b5b92915050565b6000613f5182613254565b91507fffffffffffffffffffffffffffffffffffffffffffffffffffffffffffffffff8203613f8357613f82613ee3565b5b600182019050919050565b7f4552433732313a20617070726f76616c20746f2063757272656e74206f776e6560008201527f7200000000000000000000000000000000000000000000000000000000000000602082015250565b6000613fea6021836132d1565b9150613ff582613f8e565b604082019050919050565b6000602082019050818103600083015261401981613fdd565b9050919050565b7f4552433732313a20617070726f76652063616c6c6572206973206e6f7420746f60008201527f6b656e206f776e6572206f7220617070726f76656420666f7220616c6c000000602082015250565b600061407c603d836132d1565b915061408782614020565b604082019050919050565b600060208201905081810360008301526140ab8161406f565b9050919050565b7f596f7520617265206e6f74207468652072656e746572206f662074686973207660008201527f656869636c650000000000000000000000000000000000000000000000000000602082015250565b600061410e6026836132d1565b9150614119826140b2565b604082019050919050565b6000602082019050818103600083015261413d81614101565b9050919050565b600061414f82613254565b915061415a83613254565b925082820261416881613254565b9150828204841483151761417f5761417e613ee3565b5b5092915050565b7f4e487b7100000000000000000000000000000000000000000000000000000000600052601260045260246000fd5b60006141c082613254565b91506141cb83613254565b9250826141db576141da614186565b5b828204905092915050565b600081905092915050565b50565b60006142016000836141e6565b915061420c826141f1565b600082019050919050565b6000614222826141f4565b9150819050919050565b7f4661696c656420746f2073656e64207061796d656e74206261636b20746f207260008201527f656e7465722e0000000000000000000000000000000000000000000000000000602082015250565b60006142886026836132d1565b91506142938261422c565b604082019050919050565b600060208201905081810360008301526142b78161427b565b9050919050565b7f5573657220697320616c72656164792072656769737465726564000000000000600082015250565b60006142f4601a836132d1565b91506142ff826142be565b602082019050919050565b60006020820190508181036000830152614323816142e7565b9050919050565b60008190508160005260206000209050919050565b60006020601f8301049050919050565b600082821b905092915050565b60006008830261438c7fffffffffffffffffffffffffffffffffffffffffffffffffffffffffffffffff8261434f565b614396868361434f565b95508019841693508086168417925050509392505050565b6000819050919050565b60006143d36143ce6143c984613254565b6143ae565b613254565b9050919050565b6000819050919050565b6143ed836143b8565b6144016143f9826143da565b84845461435c565b825550505050565b600090565b614416614409565b6144218184846143e4565b505050565b5b818110156144455761443a60008261440e565b600181019050614427565b5050565b601f82111561448a5761445b8161432a565b6144648461433f565b81016020851015614473578190505b61448761447f8561433f565b830182614426565b50505b505050565b600082821c905092915050565b60006144ad6000198460080261448f565b1980831691505092915050565b60006144c6838361449c565b9150826002028217905092915050565b6144df826132c6565b67ffffffffffffffff8111156144f8576144f76136b6565b5b6145028254613eb2565b61450d828285614449565b600060209050601f831160018114614540576000841561452e578287015190505b61453885826144ba565b8655506145a0565b601f19841661454e8661432a565b60005b8281101561457657848901518255600182019150602085019450602081019050614551565b86831015614593578489015161458f601f89168261449c565b8355505b6001600288020188555050505b505050505050565b7f4552433732313a2063616c6c6572206973206e6f7420746f6b656e206f776e6560008201527f72206f7220617070726f76656400000000000000000000000000000000000000602082015250565b6000614604602d836132d1565b915061460f826145a8565b604082019050919050565b60006020820190508181036000830152614633816145f7565b9050919050565b7f496e76616c69642072656e74616c20706572696f640000000000000000000000600082015250565b60006146706015836132d1565b915061467b8261463a565b602082019050919050565b6000602082019050818103600083015261469f81614663565b9050919050565b7f56656869636c6520697320616c72656164792072656e74656400000000000000600082015250565b60006146dc6019836132d1565b91506146e7826146a6565b602082019050919050565b6000602082019050818103600083015261470b816146cf565b9050919050565b7f55736572206973206e6f74207265676973746572656400000000000000000000600082015250565b60006147486016836132d1565b915061475382614712565b602082019050919050565b600060208201905081810360008301526147778161473b565b9050919050565b600061478982613254565b915061479483613254565b92508282019050808211156147ac576147ab613ee3565b5b92915050565b7f4552433732313a20696e76616c696420746f6b656e2049440000000000000000600082015250565b60006147e86018836132d1565b91506147f3826147b2565b602082019050919050565b60006020820190508181036000830152614817816147db565b9050919050565b7f4552433732313a2061646472657373207a65726f206973206e6f74206120766160008201527f6c6964206f776e65720000000000000000000000000000000000000000000000602082015250565b600061487a6029836132d1565b91506148858261481e565b604082019050919050565b600060208201905081810360008301526148a98161486d565b9050919050565b7f526174696e67206d757374206265206265747765656e203120616e6420350000600082015250565b60006148e6601e836132d1565b91506148f1826148b0565b602082019050919050565b60006020820190508181036000830152614915816148d9565b9050919050565b7f596f752068617665206e657665722072656e746564207468697320766568696360008201527f6c652e204675636b20796f750000000000000000000000000000000000000000602082015250565b6000614978602c836132d1565b91506149838261491c565b604082019050919050565b600060208201905081810360008301526149a78161496b565b9050919050565b7f596f75206861766520616c72656164792072617465642074686973207665686960008201527f636c650000000000000000000000000000000000000000000000000000000000602082015250565b6000614a0a6023836132d1565b9150614a15826149ae565b604082019050919050565b60006020820190508181036000830152614a39816149fd565b9050919050565b600081905092915050565b6000614a56826132c6565b614a608185614a40565b9350614a708185602086016132e2565b80840191505092915050565b6000614a888285614a4b565b9150614a948284614a4b565b91508190509392505050565b7f556e617574686f72697a65640000000000000000000000000000000000000000600082015250565b6000614ad6600c836132d1565b9150614ae182614aa0565b602082019050919050565b60006020820190508181036000830152614b0581614ac9565b9050919050565b600082905092915050565b614b218383614b0c565b67ffffffffffffffff811115614b3a57614b396136b6565b5b614b448254613eb2565b614b4f828285614449565b6000601f831160018114614b7e5760008415614b6c578287013590505b614b7685826144ba565b865550614bde565b601f198416614b8c8661432a565b60005b82811015614bb457848901358255600182019150602085019450602081019050614b8f565b86831015614bd15784890135614bcd601f89168261449c565b8355505b6001600288020188555050505b50505050505050565b7f4552433732313a207472616e736665722066726f6d20696e636f72726563742060008201527f6f776e6572000000000000000000000000000000000000000000000000000000602082015250565b6000614c436025836132d1565b9150614c4e82614be7565b604082019050919050565b60006020820190508181036000830152614c7281614c36565b9050919050565b7f4552433732313a207472616e7366657220746f20746865207a65726f2061646460008201527f7265737300000000000000000000000000000000000000000000000000000000602082015250565b6000614cd56024836132d1565b9150614ce082614c79565b604082019050919050565b60006020820190508181036000830152614d0481614cc8565b9050919050565b7f4552433732313a20617070726f766520746f2063616c6c657200000000000000600082015250565b6000614d416019836132d1565b9150614d4c82614d0b565b602082019050919050565b60006020820190508181036000830152614d7081614d34565b9050919050565b7f4552433732313a207472616e7366657220746f206e6f6e20455243373231526560008201527f63656976657220696d706c656d656e7465720000000000000000000000000000602082015250565b6000614dd36032836132d1565b9150614dde82614d77565b604082019050919050565b60006020820190508181036000830152614e0281614dc6565b9050919050565b7f4552433732313a206d696e7420746f20746865207a65726f2061646472657373600082015250565b6000614e3f6020836132d1565b9150614e4a82614e09565b602082019050919050565b60006020820190508181036000830152614e6e81614e32565b9050919050565b7f4552433732313a20746f6b656e20616c7265616479206d696e74656400000000600082015250565b6000614eab601c836132d1565b9150614eb682614e75565b602082019050919050565b60006020820190508181036000830152614eda81614e9e565b9050919050565b600081519050919050565b600082825260208201905092915050565b6000614f0882614ee1565b614f128185614eec565b9350614f228185602086016132e2565b614f2b8161330c565b840191505092915050565b6000608082019050614f4b6000830187613388565b614f586020830186613388565b614f6560408301856132b7565b8181036060830152614f778184614efd565b905095945050505050565b600081519050614f91816131c5565b92915050565b600060208284031215614fad57614fac61318f565b5b6000614fbb84828501614f82565b9150509291505056fea2646970667358221220e66dea62c1fdbc8b3da3da70bd45007ff849ca291339a73592d3210fdbe6bb7b64736f6c63430008130033",
  "immutableReferences": {},
  "source": "// SPDX-License-Identifier: GPL-3.0\n\npragma solidity >=0.7.0 <0.9.0;\n\nimport \"@openzeppelin/contracts/token/ERC721/ERC721.sol\";\n// import \"@openzeppelin/contracts/token/ERC20/ERC20.sol\";\nimport \"@openzeppelin/contracts/utils/Counters.sol\";\n\n\ncontract VehicleSharing is ERC721 {\n    using Counters for Counters.Counter;\n    Counters.Counter private _tokenIdCounter;\n\n    // Vehicle Data Type\n    struct Vehicle {\n        uint256 id;\n        string[] vehicleData;\n        uint256 pricePerHour;\n        address currentRenter;\n        address owner;\n        address[] renters;\n        bool isAvailable;\n        uint256 deposit_bal;  // Amount need to be deposited by renter to rent the car\n        uint256 temp_bal; \n        uint256 start;\n        uint256 end;\n\n        uint256 ratings;\n        address[] ratingsByRenters;\n        string[] reviews;\n    }\n\n    // User struct\n    struct User {\n        string name;\n        string aadhar;\n        address userAddress;\n    }\n\n    // Mappings\n    mapping(address => User) public _users; \n    mapping(uint256 => Vehicle) public _vehicles;\n    address public manager;\n    uint256 vehicleRatingCnt = 0;\n\n    // Events\n    event RentCost(uint256 rent_cost);\n    event Payment(uint256 payment);\n\n    // Constructor\n    constructor() ERC721(\"VehicleToken\", \"VT\") {\n        manager = msg.sender;\n    }\n\n    // Modifiers\n    modifier onlyManager() {\n        require(msg.sender == manager, \"Unauthorized\");\n        _;\n    }\n\n    // Function to register user\n    function registerUser(string memory name, string memory aadhar) external {\n        require(_users[msg.sender].userAddress == address(0), \"User is already registered\");\n\n        User storage user = _users[msg.sender];\n        user.name = name;\n        user.aadhar = aadhar;\n        user.userAddress = msg.sender;\n    }\n\n    // Function to add vehilce \n    function addVehicle(address owner, string calldata typeVehicle, string calldata make, string calldata model, uint256 pricePerHour, uint256 deposit_price, string calldata imageHash) external onlyManager(){\n        _tokenIdCounter.increment();\n        uint256 vehicleId = _tokenIdCounter.current();\n        _mint(msg.sender, vehicleId);\n\n        Vehicle storage newVehicle = _vehicles[vehicleId];\n        newVehicle.owner = owner;\n        newVehicle.id = vehicleId;\n        newVehicle.vehicleData.push(typeVehicle);\n        newVehicle.vehicleData.push(make);\n        newVehicle.vehicleData.push(model);\n        newVehicle.vehicleData.push(imageHash);\n        newVehicle.pricePerHour = pricePerHour * 1e18;\n        newVehicle.deposit_bal = deposit_price * 1e18;\n        newVehicle.currentRenter = address(0);\n        newVehicle.isAvailable = true;\n        newVehicle.temp_bal = 0;\n        newVehicle.ratings = 0;\n    }\n\n    // Function to calculate rent_cost based on start and end values\n    function calculateRentCost(uint256 vehicleId, uint256 start, uint256 end) external view returns (uint256, address) {\n        require(start < end, \"Invalid rental period\");\n        Vehicle storage vehicle = _vehicles[vehicleId];\n        uint256 rent_cost = vehicle.deposit_bal + ((vehicle.pricePerHour * (end - start)) / 3600000);\n        return (rent_cost, address(this));\n    }\n\n    // Function to rent vehicle\n    function rentVehicle(uint256 vehicleId, uint256 start, uint256 end) external payable {\n        require(start < end, \"Invalid rental period\");\n        Vehicle storage vehicle = _vehicles[vehicleId];\n        require(vehicle.currentRenter == address(0), \"Vehicle is already rented\");\n        User storage user = _users[msg.sender];\n        require(user.userAddress != address(0), \"User is not registered\");\n\n        uint256 rent_cost = vehicle.deposit_bal + ((vehicle.pricePerHour * (end - start)) / 3600000);\n        vehicle.temp_bal = rent_cost;\n        vehicle.currentRenter = msg.sender;\n        vehicle.renters.push(msg.sender);\n        vehicle.isAvailable = false;\n        vehicle.start = start;\n        vehicle.end = end;\n        _transfer(ownerOf(vehicleId), msg.sender, vehicleId);\n    }\n\n    // Function for getting the payment amount\n    function calculatePayment(uint256 vehicleId) external view returns (uint256, address) {\n        Vehicle storage vehicle = _vehicles[vehicleId];\n        uint256 payment = ((vehicle.pricePerHour * ((block.timestamp * 1000) - vehicle.start)) / 3600000);\n        return (payment, vehicle.owner);\n    }\n\n    // For returning the rented vehicle\n    function returnVehicle(uint256 vehicleId) external payable  {\n        Vehicle storage vehicle = _vehicles[vehicleId];\n        require(vehicle.currentRenter == msg.sender, \"You are not the renter of this vehicle\");\n\n        uint256 payment = ((vehicle.pricePerHour * ((block.timestamp * 1000) - vehicle.start)) / 3600000);\n\n        emit Payment(payment);\n\n        (bool sentPayment, ) = payable(vehicle.owner).call{value: payment}(\"\");\n        require(sentPayment, \"Failed to send payment back to renter.\");\n\n        (bool remainPayment, ) = payable(msg.sender).call{value: vehicle.temp_bal - payment}(\"\"); // getBalance(address(this))\n        require(remainPayment, \"Failed to send payment back to renter.\");\n\n\n        vehicle.currentRenter = address(0);\n        vehicle.isAvailable = true;\n        _transfer(ownerOf(vehicleId), manager, vehicleId);\n    }\n\n    // For getting account balance\n    function getBalance(address account) public view returns (uint256) {\n        return account.balance;\n    }\n\n    // Function for getting vehicle details\n    function getVehicleDetails(uint256 vehicleId) external view returns (uint256, string memory, string memory, string memory, uint256, uint256, address, address[] memory, string memory, bool, uint256) {\n        Vehicle storage vehicle = _vehicles[vehicleId];\n        return (\n            vehicle.id,\n            vehicle.vehicleData[0],\n            vehicle.vehicleData[1],\n            vehicle.vehicleData[2],\n            vehicle.pricePerHour,\n            vehicle.deposit_bal,\n            vehicle.currentRenter,\n            vehicle.renters,\n            vehicle.vehicleData[3],\n            vehicle.isAvailable,\n            vehicle.ratings\n        );\n    }\n\n    // Function for rating the vehicle\n    function rateVehicle(uint256 vehicleId, uint256 rating, string memory review) external {\n        require(rating >= 1 && rating <= 5, \"Rating must be between 1 and 5\");\n\n        Vehicle storage vehicle = _vehicles[vehicleId];\n\n        require(doesRenterExist(vehicleId, msg.sender), \"You have never rented this vehicle. Fuck you\");\n        require(doesRenterRated(vehicleId, msg.sender) == false, \"You have already rated this vehicle\");\n        vehicleRatingCnt++;\n        vehicle.ratings += rating * 10000;\n        vehicle.ratings /= vehicleRatingCnt;\n        vehicle.ratingsByRenters.push(msg.sender);\n        vehicle.reviews.push(review);\n    }\n\n    //-----------------------------Helping functions--------------------------\n    function getVehicleIds() external view returns (uint256[] memory) {\n        uint256[] memory vehicleIds = new uint256[](_tokenIdCounter.current());\n        for (uint256 i = 1; i <= _tokenIdCounter.current(); i++) {\n            vehicleIds[i - 1] = i;\n        }\n        return vehicleIds;\n    }\n\n    function doesRenterExist(uint256 vehicleId, address renter) public view returns (bool) {\n        Vehicle storage vehicle = _vehicles[vehicleId];\n        for (uint256 i = 0; i < vehicle.renters.length; i++) {\n            if (vehicle.renters[i] == renter) {\n                return true;\n            }\n        }\n        return false;\n    }\n\n    function doesRenterRated(uint256 vehicleId, address renter) public view returns (bool) {\n        Vehicle storage vehicle = _vehicles[vehicleId];\n        for (uint256 i = 0; i < vehicle.ratingsByRenters.length; i++) {\n            if (vehicle.ratingsByRenters[i] == renter) {\n                return true;\n            }\n        }\n        return false;\n    }\n}\n",
  "sourcePath": "/home/shrawan/OneDrive/Blockchain Thesis/Vehicle_Sharing/contracts/vehicle.sol",
  "compiler": {
    "name": "solc",
    "version": "0.8.19+commit.7dd6d404.Emscripten.clang"
  },
  "schemaVersion": "3.4.13",
  "updatedAt": "2023-06-05T18:03:15.301Z",
  "devdoc": {
    "events": {
      "Approval(address,address,uint256)": {
        "details": "Emitted when `owner` enables `approved` to manage the `tokenId` token."
      },
      "ApprovalForAll(address,address,bool)": {
        "details": "Emitted when `owner` enables or disables (`approved`) `operator` to manage all of its assets."
      },
      "Transfer(address,address,uint256)": {
        "details": "Emitted when `tokenId` token is transferred from `from` to `to`."
      }
    },
    "kind": "dev",
    "methods": {
      "approve(address,uint256)": {
        "details": "See {IERC721-approve}."
      },
      "balanceOf(address)": {
        "details": "See {IERC721-balanceOf}."
      },
      "getApproved(uint256)": {
        "details": "See {IERC721-getApproved}."
      },
      "isApprovedForAll(address,address)": {
        "details": "See {IERC721-isApprovedForAll}."
      },
      "name()": {
        "details": "See {IERC721Metadata-name}."
      },
      "ownerOf(uint256)": {
        "details": "See {IERC721-ownerOf}."
      },
      "safeTransferFrom(address,address,uint256)": {
        "details": "See {IERC721-safeTransferFrom}."
      },
      "safeTransferFrom(address,address,uint256,bytes)": {
        "details": "See {IERC721-safeTransferFrom}."
      },
      "setApprovalForAll(address,bool)": {
        "details": "See {IERC721-setApprovalForAll}."
      },
      "supportsInterface(bytes4)": {
        "details": "See {IERC165-supportsInterface}."
      },
      "symbol()": {
        "details": "See {IERC721Metadata-symbol}."
      },
      "tokenURI(uint256)": {
        "details": "See {IERC721Metadata-tokenURI}."
      },
      "transferFrom(address,address,uint256)": {
        "details": "See {IERC721-transferFrom}."
      }
    },
    "version": 1
  },
  "userdoc": {
    "kind": "user",
    "methods": {},
    "version": 1
  }
}