{
  "contractName": "VehicleSharing",
  "abi": [
    {
      "inputs": [],
      "stateMutability": "nonpayable",
      "type": "constructor"
    },
    {
      "anonymous": false,
      "inputs": [
        {
          "indexed": true,
          "internalType": "address",
          "name": "owner",
          "type": "address"
        },
        {
          "indexed": true,
          "internalType": "address",
          "name": "approved",
          "type": "address"
        },
        {
          "indexed": true,
          "internalType": "uint256",
          "name": "tokenId",
          "type": "uint256"
        }
      ],
      "name": "Approval",
      "type": "event"
    },
    {
      "anonymous": false,
      "inputs": [
        {
          "indexed": true,
          "internalType": "address",
          "name": "owner",
          "type": "address"
        },
        {
          "indexed": true,
          "internalType": "address",
          "name": "operator",
          "type": "address"
        },
        {
          "indexed": false,
          "internalType": "bool",
          "name": "approved",
          "type": "bool"
        }
      ],
      "name": "ApprovalForAll",
      "type": "event"
    },
    {
      "anonymous": false,
      "inputs": [
        {
          "indexed": true,
          "internalType": "address",
          "name": "from",
          "type": "address"
        },
        {
          "indexed": true,
          "internalType": "address",
          "name": "to",
          "type": "address"
        },
        {
          "indexed": true,
          "internalType": "uint256",
          "name": "tokenId",
          "type": "uint256"
        }
      ],
      "name": "Transfer",
      "type": "event"
    },
    {
      "inputs": [
        {
          "internalType": "address",
          "name": "",
          "type": "address"
        }
      ],
      "name": "_users",
      "outputs": [
        {
          "internalType": "string",
          "name": "name",
          "type": "string"
        },
        {
          "internalType": "string",
          "name": "aadhar",
          "type": "string"
        },
        {
          "internalType": "uint256",
          "name": "balance",
          "type": "uint256"
        },
        {
          "internalType": "uint256",
          "name": "locked_bal",
          "type": "uint256"
        },
        {
          "internalType": "address",
          "name": "userAddress",
          "type": "address"
        }
      ],
      "stateMutability": "view",
      "type": "function"
    },
    {
      "inputs": [
        {
          "internalType": "uint256",
          "name": "",
          "type": "uint256"
        }
      ],
      "name": "_vehicles",
      "outputs": [
        {
          "internalType": "uint256",
          "name": "id",
          "type": "uint256"
        },
        {
          "internalType": "string",
          "name": "typeVehicle",
          "type": "string"
        },
        {
          "internalType": "string",
          "name": "make",
          "type": "string"
        },
        {
          "internalType": "string",
          "name": "model",
          "type": "string"
        },
        {
          "internalType": "uint256",
          "name": "pricePerHour",
          "type": "uint256"
        },
        {
          "internalType": "address",
          "name": "currentRenter",
          "type": "address"
        },
        {
          "internalType": "bool",
          "name": "isAvailable",
          "type": "bool"
        },
        {
          "internalType": "uint256",
          "name": "deposit_bal",
          "type": "uint256"
        },
        {
          "internalType": "uint256",
          "name": "balance",
          "type": "uint256"
        },
        {
          "internalType": "uint256",
          "name": "temp_bal",
          "type": "uint256"
        },
        {
          "internalType": "uint256",
          "name": "start",
          "type": "uint256"
        },
        {
          "internalType": "uint256",
          "name": "end",
          "type": "uint256"
        }
      ],
      "stateMutability": "view",
      "type": "function"
    },
    {
      "inputs": [
        {
          "internalType": "address",
          "name": "to",
          "type": "address"
        },
        {
          "internalType": "uint256",
          "name": "tokenId",
          "type": "uint256"
        }
      ],
      "name": "approve",
      "outputs": [],
      "stateMutability": "nonpayable",
      "type": "function"
    },
    {
      "inputs": [
        {
          "internalType": "address",
          "name": "owner",
          "type": "address"
        }
      ],
      "name": "balanceOf",
      "outputs": [
        {
          "internalType": "uint256",
          "name": "",
          "type": "uint256"
        }
      ],
      "stateMutability": "view",
      "type": "function"
    },
    {
      "inputs": [
        {
          "internalType": "uint256",
          "name": "tokenId",
          "type": "uint256"
        }
      ],
      "name": "getApproved",
      "outputs": [
        {
          "internalType": "address",
          "name": "",
          "type": "address"
        }
      ],
      "stateMutability": "view",
      "type": "function"
    },
    {
      "inputs": [
        {
          "internalType": "address",
          "name": "owner",
          "type": "address"
        },
        {
          "internalType": "address",
          "name": "operator",
          "type": "address"
        }
      ],
      "name": "isApprovedForAll",
      "outputs": [
        {
          "internalType": "bool",
          "name": "",
          "type": "bool"
        }
      ],
      "stateMutability": "view",
      "type": "function"
    },
    {
      "inputs": [],
      "name": "manager",
      "outputs": [
        {
          "internalType": "address",
          "name": "",
          "type": "address"
        }
      ],
      "stateMutability": "view",
      "type": "function"
    },
    {
      "inputs": [],
      "name": "name",
      "outputs": [
        {
          "internalType": "string",
          "name": "",
          "type": "string"
        }
      ],
      "stateMutability": "view",
      "type": "function"
    },
    {
      "inputs": [
        {
          "internalType": "uint256",
          "name": "tokenId",
          "type": "uint256"
        }
      ],
      "name": "ownerOf",
      "outputs": [
        {
          "internalType": "address",
          "name": "",
          "type": "address"
        }
      ],
      "stateMutability": "view",
      "type": "function"
    },
    {
      "inputs": [
        {
          "internalType": "address",
          "name": "from",
          "type": "address"
        },
        {
          "internalType": "address",
          "name": "to",
          "type": "address"
        },
        {
          "internalType": "uint256",
          "name": "tokenId",
          "type": "uint256"
        }
      ],
      "name": "safeTransferFrom",
      "outputs": [],
      "stateMutability": "nonpayable",
      "type": "function"
    },
    {
      "inputs": [
        {
          "internalType": "address",
          "name": "from",
          "type": "address"
        },
        {
          "internalType": "address",
          "name": "to",
          "type": "address"
        },
        {
          "internalType": "uint256",
          "name": "tokenId",
          "type": "uint256"
        },
        {
          "internalType": "bytes",
          "name": "data",
          "type": "bytes"
        }
      ],
      "name": "safeTransferFrom",
      "outputs": [],
      "stateMutability": "nonpayable",
      "type": "function"
    },
    {
      "inputs": [
        {
          "internalType": "address",
          "name": "operator",
          "type": "address"
        },
        {
          "internalType": "bool",
          "name": "approved",
          "type": "bool"
        }
      ],
      "name": "setApprovalForAll",
      "outputs": [],
      "stateMutability": "nonpayable",
      "type": "function"
    },
    {
      "inputs": [
        {
          "internalType": "bytes4",
          "name": "interfaceId",
          "type": "bytes4"
        }
      ],
      "name": "supportsInterface",
      "outputs": [
        {
          "internalType": "bool",
          "name": "",
          "type": "bool"
        }
      ],
      "stateMutability": "view",
      "type": "function"
    },
    {
      "inputs": [],
      "name": "symbol",
      "outputs": [
        {
          "internalType": "string",
          "name": "",
          "type": "string"
        }
      ],
      "stateMutability": "view",
      "type": "function"
    },
    {
      "inputs": [
        {
          "internalType": "uint256",
          "name": "tokenId",
          "type": "uint256"
        }
      ],
      "name": "tokenURI",
      "outputs": [
        {
          "internalType": "string",
          "name": "",
          "type": "string"
        }
      ],
      "stateMutability": "view",
      "type": "function"
    },
    {
      "inputs": [
        {
          "internalType": "address",
          "name": "from",
          "type": "address"
        },
        {
          "internalType": "address",
          "name": "to",
          "type": "address"
        },
        {
          "internalType": "uint256",
          "name": "tokenId",
          "type": "uint256"
        }
      ],
      "name": "transferFrom",
      "outputs": [],
      "stateMutability": "nonpayable",
      "type": "function"
    },
    {
      "inputs": [
        {
          "internalType": "string",
          "name": "name",
          "type": "string"
        },
        {
          "internalType": "string",
          "name": "aadhar",
          "type": "string"
        }
      ],
      "name": "registerUser",
      "outputs": [],
      "stateMutability": "nonpayable",
      "type": "function"
    },
    {
      "inputs": [
        {
          "internalType": "string",
          "name": "typeVehicle",
          "type": "string"
        },
        {
          "internalType": "string",
          "name": "make",
          "type": "string"
        },
        {
          "internalType": "string",
          "name": "model",
          "type": "string"
        },
        {
          "internalType": "uint256",
          "name": "pricePerHour",
          "type": "uint256"
        },
        {
          "internalType": "uint256",
          "name": "deposit_price",
          "type": "uint256"
        }
      ],
      "name": "addVehicle",
      "outputs": [],
      "stateMutability": "nonpayable",
      "type": "function"
    },
    {
      "inputs": [
        {
          "internalType": "uint256",
          "name": "vehicleId",
          "type": "uint256"
        },
        {
          "internalType": "uint256",
          "name": "start",
          "type": "uint256"
        },
        {
          "internalType": "uint256",
          "name": "end",
          "type": "uint256"
        }
      ],
      "name": "rentVehicle",
      "outputs": [],
      "stateMutability": "payable",
      "type": "function"
    },
    {
      "inputs": [
        {
          "internalType": "uint256",
          "name": "vehicleId",
          "type": "uint256"
        }
      ],
      "name": "returnVehicle",
      "outputs": [],
      "stateMutability": "nonpayable",
      "type": "function"
    }
  ],
  "bytecode": "0x60806040523480156200001157600080fd5b506040518060400160405280600c81526020017f56656869636c65546f6b656e00000000000000000000000000000000000000008152506040518060400160405280600281526020017f565400000000000000000000000000000000000000000000000000000000000081525081600090816200008f91906200036d565b508060019081620000a191906200036d565b50505033600960006101000a81548173ffffffffffffffffffffffffffffffffffffffff021916908373ffffffffffffffffffffffffffffffffffffffff1602179055506000600a8190555062000454565b600081519050919050565b7f4e487b7100000000000000000000000000000000000000000000000000000000600052604160045260246000fd5b7f4e487b7100000000000000000000000000000000000000000000000000000000600052602260045260246000fd5b600060028204905060018216806200017557607f821691505b6020821081036200018b576200018a6200012d565b5b50919050565b60008190508160005260206000209050919050565b60006020601f8301049050919050565b600082821b905092915050565b600060088302620001f57fffffffffffffffffffffffffffffffffffffffffffffffffffffffffffffffff82620001b6565b620002018683620001b6565b95508019841693508086168417925050509392505050565b6000819050919050565b6000819050919050565b60006200024e62000248620002428462000219565b62000223565b62000219565b9050919050565b6000819050919050565b6200026a836200022d565b62000282620002798262000255565b848454620001c3565b825550505050565b600090565b620002996200028a565b620002a68184846200025f565b505050565b5b81811015620002ce57620002c26000826200028f565b600181019050620002ac565b5050565b601f8211156200031d57620002e78162000191565b620002f284620001a6565b8101602085101562000302578190505b6200031a6200031185620001a6565b830182620002ab565b50505b505050565b600082821c905092915050565b6000620003426000198460080262000322565b1980831691505092915050565b60006200035d83836200032f565b9150826002028217905092915050565b6200037882620000f3565b67ffffffffffffffff811115620003945762000393620000fe565b5b620003a082546200015c565b620003ad828285620002d2565b600060209050601f831160018114620003e55760008415620003d0578287015190505b620003dc85826200034f565b8655506200044c565b601f198416620003f58662000191565b60005b828110156200041f57848901518255600182019150602085019450602081019050620003f8565b868310156200043f57848901516200043b601f8916826200032f565b8355505b6001600288020188555050505b505050505050565b613c8580620004646000396000f3fe60806040526004361061011f5760003560e01c806342842e0e116100a0578063a22cb46511610064578063a22cb465146103ec578063b88d4fde14610415578063c370d4411461043e578063c87b56dd14610486578063e985e9c5146104c35761011f565b806342842e0e146102f3578063481c6a751461031c5780636352211e1461034757806370a082311461038457806395d89b41146103c15761011f565b80630d9f2496116100e75780630d9f24961461021b5780631d2e4afd1461024457806323b872dd1461026d578063390e8a77146102965780633cacd7d6146102b25761011f565b806301ffc9a71461012457806306fdde0314610161578063081812fc1461018c578063095ea7b3146101c95780630c1d215f146101f2575b600080fd5b34801561013057600080fd5b5061014b6004803603810190610146919061252c565b610500565b6040516101589190612574565b60405180910390f35b34801561016d57600080fd5b506101766105e2565b604051610183919061261f565b60405180910390f35b34801561019857600080fd5b506101b360048036038101906101ae9190612677565b610674565b6040516101c091906126e5565b60405180910390f35b3480156101d557600080fd5b506101f060048036038101906101eb919061272c565b6106ba565b005b3480156101fe57600080fd5b50610219600480360381019061021491906128a1565b6107d1565b005b34801561022757600080fd5b50610242600480360381019061023d9190612677565b610969565b005b34801561025057600080fd5b5061026b60048036038101906102669190612970565b610aac565b005b34801561027957600080fd5b50610294600480360381019061028f91906129e8565b610c46565b005b6102b060048036038101906102ab9190612a3b565b610ca6565b005b3480156102be57600080fd5b506102d960048036038101906102d49190612a8e565b611033565b6040516102ea959493929190612aca565b60405180910390f35b3480156102ff57600080fd5b5061031a600480360381019061031591906129e8565b611199565b005b34801561032857600080fd5b506103316111b9565b60405161033e91906126e5565b60405180910390f35b34801561035357600080fd5b5061036e60048036038101906103699190612677565b6111df565b60405161037b91906126e5565b60405180910390f35b34801561039057600080fd5b506103ab60048036038101906103a69190612a8e565b611265565b6040516103b89190612b2b565b60405180910390f35b3480156103cd57600080fd5b506103d661131c565b6040516103e3919061261f565b60405180910390f35b3480156103f857600080fd5b50610413600480360381019061040e9190612b72565b6113ae565b005b34801561042157600080fd5b5061043c60048036038101906104379190612c53565b6113c4565b005b34801561044a57600080fd5b5061046560048036038101906104609190612677565b611426565b60405161047d9c9b9a99989796959493929190612cd6565b60405180910390f35b34801561049257600080fd5b506104ad60048036038101906104a89190612677565b61164b565b6040516104ba919061261f565b60405180910390f35b3480156104cf57600080fd5b506104ea60048036038101906104e59190612da5565b6116b3565b6040516104f79190612574565b60405180910390f35b60007f80ac58cd000000000000000000000000000000000000000000000000000000007bffffffffffffffffffffffffffffffffffffffffffffffffffffffff1916827bffffffffffffffffffffffffffffffffffffffffffffffffffffffff191614806105cb57507f5b5e139f000000000000000000000000000000000000000000000000000000007bffffffffffffffffffffffffffffffffffffffffffffffffffffffff1916827bffffffffffffffffffffffffffffffffffffffffffffffffffffffff1916145b806105db57506105da82611747565b5b9050919050565b6060600080546105f190612e14565b80601f016020809104026020016040519081016040528092919081815260200182805461061d90612e14565b801561066a5780601f1061063f5761010080835404028352916020019161066a565b820191906000526020600020905b81548152906001019060200180831161064d57829003601f168201915b5050505050905090565b600061067f826117b1565b6004600083815260200190815260200160002060009054906101000a900473ffffffffffffffffffffffffffffffffffffffff169050919050565b60006106c5826111df565b90508073ffffffffffffffffffffffffffffffffffffffff168373ffffffffffffffffffffffffffffffffffffffff1603610735576040517f08c379a000000000000000000000000000000000000000000000000000000000815260040161072c90612eb7565b60405180910390fd5b8073ffffffffffffffffffffffffffffffffffffffff166107546117fc565b73ffffffffffffffffffffffffffffffffffffffff16148061078357506107828161077d6117fc565b6116b3565b5b6107c2576040517f08c379a00000000000000000000000000000000000000000000000000000000081526004016107b990612f49565b60405180910390fd5b6107cc8383611804565b505050565b600960009054906101000a900473ffffffffffffffffffffffffffffffffffffffff1673ffffffffffffffffffffffffffffffffffffffff163373ffffffffffffffffffffffffffffffffffffffff1614610861576040517f08c379a000000000000000000000000000000000000000000000000000000000815260040161085890612fb5565b60405180910390fd5b61086b60066118bd565b600061087760066118d3565b905061088333826118e1565b6000600860008381526020019081526020016000209050818160000181905550868160010190816108b49190613181565b50858160020190816108c69190613181565b50848160030190816108d89190613181565b5083816004018190555082816008018190555060008160050160006101000a81548173ffffffffffffffffffffffffffffffffffffffff021916908373ffffffffffffffffffffffffffffffffffffffff16021790555060018160070160006101000a81548160ff02191690831515021790555060008160090181905550600081600a018190555050505050505050565b60006008600083815260200190815260200160002090503373ffffffffffffffffffffffffffffffffffffffff168160050160009054906101000a900473ffffffffffffffffffffffffffffffffffffffff1673ffffffffffffffffffffffffffffffffffffffff1614610a12576040517f08c379a0000000000000000000000000000000000000000000000000000000008152600401610a09906132c5565b60405180910390fd5b60008160050160006101000a81548173ffffffffffffffffffffffffffffffffffffffff021916908373ffffffffffffffffffffffffffffffffffffffff16021790555060018160070160006101000a81548160ff021916908315150217905550610aa8610a7f836111df565b600960009054906101000a900473ffffffffffffffffffffffffffffffffffffffff1684611afe565b5050565b600073ffffffffffffffffffffffffffffffffffffffff16600760003373ffffffffffffffffffffffffffffffffffffffff1673ffffffffffffffffffffffffffffffffffffffff16815260200190815260200160002060040160009054906101000a900473ffffffffffffffffffffffffffffffffffffffff1673ffffffffffffffffffffffffffffffffffffffff1614610b7d576040517f08c379a0000000000000000000000000000000000000000000000000000000008152600401610b7490613331565b60405180910390fd5b6000600760003373ffffffffffffffffffffffffffffffffffffffff1673ffffffffffffffffffffffffffffffffffffffff168152602001908152602001600020905082816000019081610bd19190613181565b5066ea673d60d431fe81600201819055506000816003018190555081816001019081610bfd9190613181565b50338160040160006101000a81548173ffffffffffffffffffffffffffffffffffffffff021916908373ffffffffffffffffffffffffffffffffffffffff160217905550505050565b610c57610c516117fc565b82611df7565b610c96576040517f08c379a0000000000000000000000000000000000000000000000000000000008152600401610c8d906133c3565b60405180910390fd5b610ca1838383611afe565b505050565b808210610ce8576040517f08c379a0000000000000000000000000000000000000000000000000000000008152600401610cdf9061342f565b60405180910390fd5b6000600860008581526020019081526020016000209050600073ffffffffffffffffffffffffffffffffffffffff168160050160009054906101000a900473ffffffffffffffffffffffffffffffffffffffff1673ffffffffffffffffffffffffffffffffffffffff1614610d92576040517f08c379a0000000000000000000000000000000000000000000000000000000008152600401610d899061349b565b60405180910390fd5b6000600760003373ffffffffffffffffffffffffffffffffffffffff1673ffffffffffffffffffffffffffffffffffffffff1681526020019081526020016000209050600073ffffffffffffffffffffffffffffffffffffffff168160040160009054906101000a900473ffffffffffffffffffffffffffffffffffffffff1673ffffffffffffffffffffffffffffffffffffffff1603610e68576040517f08c379a0000000000000000000000000000000000000000000000000000000008152600401610e5f90613507565b60405180910390fd5b6000610e108585610e799190613556565b610e8391906135b9565b8360040154610e9291906135ea565b8360080154610ea1919061362c565b90508082600201541015610eea576040517f08c379a0000000000000000000000000000000000000000000000000000000008152600401610ee1906136ac565b60405180910390fd5b80826002016000828254610efe9190613556565b9250508190555080826003016000828254610f19919061362c565b92505081905550600a6000815480929190610f33906136cc565b91905055508083600a0181905550338360050160006101000a81548173ffffffffffffffffffffffffffffffffffffffff021916908373ffffffffffffffffffffffffffffffffffffffff16021790555082600601339080600181540180825580915050600190039060005260206000200160009091909190916101000a81548173ffffffffffffffffffffffffffffffffffffffff021916908373ffffffffffffffffffffffffffffffffffffffff16021790555060008360070160006101000a81548160ff0219169083151502179055508483600b01819055508383600c018190555061102b611024876111df565b3388611afe565b505050505050565b600760205280600052604060002060009150905080600001805461105690612e14565b80601f016020809104026020016040519081016040528092919081815260200182805461108290612e14565b80156110cf5780601f106110a4576101008083540402835291602001916110cf565b820191906000526020600020905b8154815290600101906020018083116110b257829003601f168201915b5050505050908060010180546110e490612e14565b80601f016020809104026020016040519081016040528092919081815260200182805461111090612e14565b801561115d5780601f106111325761010080835404028352916020019161115d565b820191906000526020600020905b81548152906001019060200180831161114057829003601f168201915b5050505050908060020154908060030154908060040160009054906101000a900473ffffffffffffffffffffffffffffffffffffffff16905085565b6111b4838383604051806020016040528060008152506113c4565b505050565b600960009054906101000a900473ffffffffffffffffffffffffffffffffffffffff1681565b6000806111eb83611e8c565b9050600073ffffffffffffffffffffffffffffffffffffffff168173ffffffffffffffffffffffffffffffffffffffff160361125c576040517f08c379a000000000000000000000000000000000000000000000000000000000815260040161125390613760565b60405180910390fd5b80915050919050565b60008073ffffffffffffffffffffffffffffffffffffffff168273ffffffffffffffffffffffffffffffffffffffff16036112d5576040517f08c379a00000000000000000000000000000000000000000000000000000000081526004016112cc906137f2565b60405180910390fd5b600360008373ffffffffffffffffffffffffffffffffffffffff1673ffffffffffffffffffffffffffffffffffffffff168152602001908152602001600020549050919050565b60606001805461132b90612e14565b80601f016020809104026020016040519081016040528092919081815260200182805461135790612e14565b80156113a45780601f10611379576101008083540402835291602001916113a4565b820191906000526020600020905b81548152906001019060200180831161138757829003601f168201915b5050505050905090565b6113c06113b96117fc565b8383611ec9565b5050565b6113d56113cf6117fc565b83611df7565b611414576040517f08c379a000000000000000000000000000000000000000000000000000000000815260040161140b906133c3565b60405180910390fd5b61142084848484612035565b50505050565b600860205280600052604060002060009150905080600001549080600101805461144f90612e14565b80601f016020809104026020016040519081016040528092919081815260200182805461147b90612e14565b80156114c85780601f1061149d576101008083540402835291602001916114c8565b820191906000526020600020905b8154815290600101906020018083116114ab57829003601f168201915b5050505050908060020180546114dd90612e14565b80601f016020809104026020016040519081016040528092919081815260200182805461150990612e14565b80156115565780601f1061152b57610100808354040283529160200191611556565b820191906000526020600020905b81548152906001019060200180831161153957829003601f168201915b50505050509080600301805461156b90612e14565b80601f016020809104026020016040519081016040528092919081815260200182805461159790612e14565b80156115e45780601f106115b9576101008083540402835291602001916115e4565b820191906000526020600020905b8154815290600101906020018083116115c757829003601f168201915b5050505050908060040154908060050160009054906101000a900473ffffffffffffffffffffffffffffffffffffffff16908060070160009054906101000a900460ff169080600801549080600901549080600a01549080600b01549080600c015490508c565b6060611656826117b1565b6000611660612091565b9050600081511161168057604051806020016040528060008152506116ab565b8061168a846120a8565b60405160200161169b92919061384e565b6040516020818303038152906040525b915050919050565b6000600560008473ffffffffffffffffffffffffffffffffffffffff1673ffffffffffffffffffffffffffffffffffffffff16815260200190815260200160002060008373ffffffffffffffffffffffffffffffffffffffff1673ffffffffffffffffffffffffffffffffffffffff16815260200190815260200160002060009054906101000a900460ff16905092915050565b60007f01ffc9a7000000000000000000000000000000000000000000000000000000007bffffffffffffffffffffffffffffffffffffffffffffffffffffffff1916827bffffffffffffffffffffffffffffffffffffffffffffffffffffffff1916149050919050565b6117ba81612176565b6117f9576040517f08c379a00000000000000000000000000000000000000000000000000000000081526004016117f090613760565b60405180910390fd5b50565b600033905090565b816004600083815260200190815260200160002060006101000a81548173ffffffffffffffffffffffffffffffffffffffff021916908373ffffffffffffffffffffffffffffffffffffffff160217905550808273ffffffffffffffffffffffffffffffffffffffff16611877836111df565b73ffffffffffffffffffffffffffffffffffffffff167f8c5be1e5ebec7d5bd14f71427d1e84f3dd0314c0f7b2291e5b200ac8c7c3b92560405160405180910390a45050565b6001816000016000828254019250508190555050565b600081600001549050919050565b600073ffffffffffffffffffffffffffffffffffffffff168273ffffffffffffffffffffffffffffffffffffffff1603611950576040517f08c379a0000000000000000000000000000000000000000000000000000000008152600401611947906138be565b60405180910390fd5b61195981612176565b15611999576040517f08c379a00000000000000000000000000000000000000000000000000000000081526004016119909061392a565b60405180910390fd5b6119a76000838360016121b7565b6119b081612176565b156119f0576040517f08c379a00000000000000000000000000000000000000000000000000000000081526004016119e79061392a565b60405180910390fd5b6001600360008473ffffffffffffffffffffffffffffffffffffffff1673ffffffffffffffffffffffffffffffffffffffff16815260200190815260200160002060008282540192505081905550816002600083815260200190815260200160002060006101000a81548173ffffffffffffffffffffffffffffffffffffffff021916908373ffffffffffffffffffffffffffffffffffffffff160217905550808273ffffffffffffffffffffffffffffffffffffffff16600073ffffffffffffffffffffffffffffffffffffffff167fddf252ad1be2c89b69c2b068fc378daa952ba7f163c4a11628f55a4df523b3ef60405160405180910390a4611afa6000838360016121bd565b5050565b8273ffffffffffffffffffffffffffffffffffffffff16611b1e826111df565b73ffffffffffffffffffffffffffffffffffffffff1614611b74576040517f08c379a0000000000000000000000000000000000000000000000000000000008152600401611b6b906139bc565b60405180910390fd5b600073ffffffffffffffffffffffffffffffffffffffff168273ffffffffffffffffffffffffffffffffffffffff1603611be3576040517f08c379a0000000000000000000000000000000000000000000000000000000008152600401611bda90613a4e565b60405180910390fd5b611bf083838360016121b7565b8273ffffffffffffffffffffffffffffffffffffffff16611c10826111df565b73ffffffffffffffffffffffffffffffffffffffff1614611c66576040517f08c379a0000000000000000000000000000000000000000000000000000000008152600401611c5d906139bc565b60405180910390fd5b6004600082815260200190815260200160002060006101000a81549073ffffffffffffffffffffffffffffffffffffffff02191690556001600360008573ffffffffffffffffffffffffffffffffffffffff1673ffffffffffffffffffffffffffffffffffffffff168152602001908152602001600020600082825403925050819055506001600360008473ffffffffffffffffffffffffffffffffffffffff1673ffffffffffffffffffffffffffffffffffffffff16815260200190815260200160002060008282540192505081905550816002600083815260200190815260200160002060006101000a81548173ffffffffffffffffffffffffffffffffffffffff021916908373ffffffffffffffffffffffffffffffffffffffff160217905550808273ffffffffffffffffffffffffffffffffffffffff168473ffffffffffffffffffffffffffffffffffffffff167fddf252ad1be2c89b69c2b068fc378daa952ba7f163c4a11628f55a4df523b3ef60405160405180910390a4611df283838360016121bd565b505050565b600080611e03836111df565b90508073ffffffffffffffffffffffffffffffffffffffff168473ffffffffffffffffffffffffffffffffffffffff161480611e455750611e4481856116b3565b5b80611e8357508373ffffffffffffffffffffffffffffffffffffffff16611e6b84610674565b73ffffffffffffffffffffffffffffffffffffffff16145b91505092915050565b60006002600083815260200190815260200160002060009054906101000a900473ffffffffffffffffffffffffffffffffffffffff169050919050565b8173ffffffffffffffffffffffffffffffffffffffff168373ffffffffffffffffffffffffffffffffffffffff1603611f37576040517f08c379a0000000000000000000000000000000000000000000000000000000008152600401611f2e90613aba565b60405180910390fd5b80600560008573ffffffffffffffffffffffffffffffffffffffff1673ffffffffffffffffffffffffffffffffffffffff16815260200190815260200160002060008473ffffffffffffffffffffffffffffffffffffffff1673ffffffffffffffffffffffffffffffffffffffff16815260200190815260200160002060006101000a81548160ff0219169083151502179055508173ffffffffffffffffffffffffffffffffffffffff168373ffffffffffffffffffffffffffffffffffffffff167f17307eab39ab6107e8899845ad3d59bd9653f200f220920489ca2b5937696c31836040516120289190612574565b60405180910390a3505050565b612040848484611afe565b61204c848484846121c3565b61208b576040517f08c379a000000000000000000000000000000000000000000000000000000000815260040161208290613b4c565b60405180910390fd5b50505050565b606060405180602001604052806000815250905090565b6060600060016120b78461234a565b01905060008167ffffffffffffffff8111156120d6576120d5612776565b5b6040519080825280601f01601f1916602001820160405280156121085781602001600182028036833780820191505090505b509050600082602001820190505b60011561216b578080600190039150507f3031323334353637383961626364656600000000000000000000000000000000600a86061a8153600a858161215f5761215e61358a565b5b04945060008503612116575b819350505050919050565b60008073ffffffffffffffffffffffffffffffffffffffff1661219883611e8c565b73ffffffffffffffffffffffffffffffffffffffff1614159050919050565b50505050565b50505050565b60006121e48473ffffffffffffffffffffffffffffffffffffffff1661249d565b1561233d578373ffffffffffffffffffffffffffffffffffffffff1663150b7a0261220d6117fc565b8786866040518563ffffffff1660e01b815260040161222f9493929190613bc1565b6020604051808303816000875af192505050801561226b57506040513d601f19601f820116820180604052508101906122689190613c22565b60015b6122ed573d806000811461229b576040519150601f19603f3d011682016040523d82523d6000602084013e6122a0565b606091505b5060008151036122e5576040517f08c379a00000000000000000000000000000000000000000000000000000000081526004016122dc90613b4c565b60405180910390fd5b805181602001fd5b63150b7a0260e01b7bffffffffffffffffffffffffffffffffffffffffffffffffffffffff1916817bffffffffffffffffffffffffffffffffffffffffffffffffffffffff191614915050612342565b600190505b949350505050565b600080600090507a184f03e93ff9f4daa797ed6e38ed64bf6a1f01000000000000000083106123a8577a184f03e93ff9f4daa797ed6e38ed64bf6a1f010000000000000000838161239e5761239d61358a565b5b0492506040810190505b6d04ee2d6d415b85acef810000000083106123e5576d04ee2d6d415b85acef810000000083816123db576123da61358a565b5b0492506020810190505b662386f26fc10000831061241457662386f26fc10000838161240a5761240961358a565b5b0492506010810190505b6305f5e100831061243d576305f5e10083816124335761243261358a565b5b0492506008810190505b61271083106124625761271083816124585761245761358a565b5b0492506004810190505b60648310612485576064838161247b5761247a61358a565b5b0492506002810190505b600a8310612494576001810190505b80915050919050565b6000808273ffffffffffffffffffffffffffffffffffffffff163b119050919050565b6000604051905090565b600080fd5b600080fd5b60007fffffffff0000000000000000000000000000000000000000000000000000000082169050919050565b612509816124d4565b811461251457600080fd5b50565b60008135905061252681612500565b92915050565b600060208284031215612542576125416124ca565b5b600061255084828501612517565b91505092915050565b60008115159050919050565b61256e81612559565b82525050565b60006020820190506125896000830184612565565b92915050565b600081519050919050565b600082825260208201905092915050565b60005b838110156125c95780820151818401526020810190506125ae565b60008484015250505050565b6000601f19601f8301169050919050565b60006125f18261258f565b6125fb818561259a565b935061260b8185602086016125ab565b612614816125d5565b840191505092915050565b6000602082019050818103600083015261263981846125e6565b905092915050565b6000819050919050565b61265481612641565b811461265f57600080fd5b50565b6000813590506126718161264b565b92915050565b60006020828403121561268d5761268c6124ca565b5b600061269b84828501612662565b91505092915050565b600073ffffffffffffffffffffffffffffffffffffffff82169050919050565b60006126cf826126a4565b9050919050565b6126df816126c4565b82525050565b60006020820190506126fa60008301846126d6565b92915050565b612709816126c4565b811461271457600080fd5b50565b60008135905061272681612700565b92915050565b60008060408385031215612743576127426124ca565b5b600061275185828601612717565b925050602061276285828601612662565b9150509250929050565b600080fd5b600080fd5b7f4e487b7100000000000000000000000000000000000000000000000000000000600052604160045260246000fd5b6127ae826125d5565b810181811067ffffffffffffffff821117156127cd576127cc612776565b5b80604052505050565b60006127e06124c0565b90506127ec82826127a5565b919050565b600067ffffffffffffffff82111561280c5761280b612776565b5b612815826125d5565b9050602081019050919050565b82818337600083830152505050565b600061284461283f846127f1565b6127d6565b9050828152602081018484840111156128605761285f612771565b5b61286b848285612822565b509392505050565b600082601f8301126128885761288761276c565b5b8135612898848260208601612831565b91505092915050565b600080600080600060a086880312156128bd576128bc6124ca565b5b600086013567ffffffffffffffff8111156128db576128da6124cf565b5b6128e788828901612873565b955050602086013567ffffffffffffffff811115612908576129076124cf565b5b61291488828901612873565b945050604086013567ffffffffffffffff811115612935576129346124cf565b5b61294188828901612873565b935050606061295288828901612662565b925050608061296388828901612662565b9150509295509295909350565b60008060408385031215612987576129866124ca565b5b600083013567ffffffffffffffff8111156129a5576129a46124cf565b5b6129b185828601612873565b925050602083013567ffffffffffffffff8111156129d2576129d16124cf565b5b6129de85828601612873565b9150509250929050565b600080600060608486031215612a0157612a006124ca565b5b6000612a0f86828701612717565b9350506020612a2086828701612717565b9250506040612a3186828701612662565b9150509250925092565b600080600060608486031215612a5457612a536124ca565b5b6000612a6286828701612662565b9350506020612a7386828701612662565b9250506040612a8486828701612662565b9150509250925092565b600060208284031215612aa457612aa36124ca565b5b6000612ab284828501612717565b91505092915050565b612ac481612641565b82525050565b600060a0820190508181036000830152612ae481886125e6565b90508181036020830152612af881876125e6565b9050612b076040830186612abb565b612b146060830185612abb565b612b2160808301846126d6565b9695505050505050565b6000602082019050612b406000830184612abb565b92915050565b612b4f81612559565b8114612b5a57600080fd5b50565b600081359050612b6c81612b46565b92915050565b60008060408385031215612b8957612b886124ca565b5b6000612b9785828601612717565b9250506020612ba885828601612b5d565b9150509250929050565b600067ffffffffffffffff821115612bcd57612bcc612776565b5b612bd6826125d5565b9050602081019050919050565b6000612bf6612bf184612bb2565b6127d6565b905082815260208101848484011115612c1257612c11612771565b5b612c1d848285612822565b509392505050565b600082601f830112612c3a57612c3961276c565b5b8135612c4a848260208601612be3565b91505092915050565b60008060008060808587031215612c6d57612c6c6124ca565b5b6000612c7b87828801612717565b9450506020612c8c87828801612717565b9350506040612c9d87828801612662565b925050606085013567ffffffffffffffff811115612cbe57612cbd6124cf565b5b612cca87828801612c25565b91505092959194509250565b600061018082019050612cec600083018f612abb565b8181036020830152612cfe818e6125e6565b90508181036040830152612d12818d6125e6565b90508181036060830152612d26818c6125e6565b9050612d35608083018b612abb565b612d4260a083018a6126d6565b612d4f60c0830189612565565b612d5c60e0830188612abb565b612d6a610100830187612abb565b612d78610120830186612abb565b612d86610140830185612abb565b612d94610160830184612abb565b9d9c50505050505050505050505050565b60008060408385031215612dbc57612dbb6124ca565b5b6000612dca85828601612717565b9250506020612ddb85828601612717565b9150509250929050565b7f4e487b7100000000000000000000000000000000000000000000000000000000600052602260045260246000fd5b60006002820490506001821680612e2c57607f821691505b602082108103612e3f57612e3e612de5565b5b50919050565b7f4552433732313a20617070726f76616c20746f2063757272656e74206f776e6560008201527f7200000000000000000000000000000000000000000000000000000000000000602082015250565b6000612ea160218361259a565b9150612eac82612e45565b604082019050919050565b60006020820190508181036000830152612ed081612e94565b9050919050565b7f4552433732313a20617070726f76652063616c6c6572206973206e6f7420746f60008201527f6b656e206f776e6572206f7220617070726f76656420666f7220616c6c000000602082015250565b6000612f33603d8361259a565b9150612f3e82612ed7565b604082019050919050565b60006020820190508181036000830152612f6281612f26565b9050919050565b7f556e617574686f72697a65640000000000000000000000000000000000000000600082015250565b6000612f9f600c8361259a565b9150612faa82612f69565b602082019050919050565b60006020820190508181036000830152612fce81612f92565b9050919050565b60008190508160005260206000209050919050565b60006020601f8301049050919050565b600082821b905092915050565b6000600883026130377fffffffffffffffffffffffffffffffffffffffffffffffffffffffffffffffff82612ffa565b6130418683612ffa565b95508019841693508086168417925050509392505050565b6000819050919050565b600061307e61307961307484612641565b613059565b612641565b9050919050565b6000819050919050565b61309883613063565b6130ac6130a482613085565b848454613007565b825550505050565b600090565b6130c16130b4565b6130cc81848461308f565b505050565b5b818110156130f0576130e56000826130b9565b6001810190506130d2565b5050565b601f8211156131355761310681612fd5565b61310f84612fea565b8101602085101561311e578190505b61313261312a85612fea565b8301826130d1565b50505b505050565b600082821c905092915050565b60006131586000198460080261313a565b1980831691505092915050565b60006131718383613147565b9150826002028217905092915050565b61318a8261258f565b67ffffffffffffffff8111156131a3576131a2612776565b5b6131ad8254612e14565b6131b88282856130f4565b600060209050601f8311600181146131eb57600084156131d9578287015190505b6131e38582613165565b86555061324b565b601f1984166131f986612fd5565b60005b82811015613221578489015182556001820191506020850194506020810190506131fc565b8683101561323e578489015161323a601f891682613147565b8355505b6001600288020188555050505b505050505050565b7f596f7520617265206e6f74207468652072656e746572206f662074686973207660008201527f656869636c650000000000000000000000000000000000000000000000000000602082015250565b60006132af60268361259a565b91506132ba82613253565b604082019050919050565b600060208201905081810360008301526132de816132a2565b9050919050565b7f5573657220697320616c72656164792072656769737465726564000000000000600082015250565b600061331b601a8361259a565b9150613326826132e5565b602082019050919050565b6000602082019050818103600083015261334a8161330e565b9050919050565b7f4552433732313a2063616c6c6572206973206e6f7420746f6b656e206f776e6560008201527f72206f7220617070726f76656400000000000000000000000000000000000000602082015250565b60006133ad602d8361259a565b91506133b882613351565b604082019050919050565b600060208201905081810360008301526133dc816133a0565b9050919050565b7f496e76616c69642072656e74616c20706572696f640000000000000000000000600082015250565b600061341960158361259a565b9150613424826133e3565b602082019050919050565b600060208201905081810360008301526134488161340c565b9050919050565b7f56656869636c6520697320616c72656164792072656e74656400000000000000600082015250565b600061348560198361259a565b91506134908261344f565b602082019050919050565b600060208201905081810360008301526134b481613478565b9050919050565b7f55736572206973206e6f74207265676973746572656400000000000000000000600082015250565b60006134f160168361259a565b91506134fc826134bb565b602082019050919050565b60006020820190508181036000830152613520816134e4565b9050919050565b7f4e487b7100000000000000000000000000000000000000000000000000000000600052601160045260246000fd5b600061356182612641565b915061356c83612641565b925082820390508181111561358457613583613527565b5b92915050565b7f4e487b7100000000000000000000000000000000000000000000000000000000600052601260045260246000fd5b60006135c482612641565b91506135cf83612641565b9250826135df576135de61358a565b5b828204905092915050565b60006135f582612641565b915061360083612641565b925082820261360e81612641565b9150828204841483151761362557613624613527565b5b5092915050565b600061363782612641565b915061364283612641565b925082820190508082111561365a57613659613527565b5b92915050565b7f496e73756666696369656e742066756e64730000000000000000000000000000600082015250565b600061369660128361259a565b91506136a182613660565b602082019050919050565b600060208201905081810360008301526136c581613689565b9050919050565b60006136d782612641565b91507fffffffffffffffffffffffffffffffffffffffffffffffffffffffffffffffff820361370957613708613527565b5b600182019050919050565b7f4552433732313a20696e76616c696420746f6b656e2049440000000000000000600082015250565b600061374a60188361259a565b915061375582613714565b602082019050919050565b600060208201905081810360008301526137798161373d565b9050919050565b7f4552433732313a2061646472657373207a65726f206973206e6f74206120766160008201527f6c6964206f776e65720000000000000000000000000000000000000000000000602082015250565b60006137dc60298361259a565b91506137e782613780565b604082019050919050565b6000602082019050818103600083015261380b816137cf565b9050919050565b600081905092915050565b60006138288261258f565b6138328185613812565b93506138428185602086016125ab565b80840191505092915050565b600061385a828561381d565b9150613866828461381d565b91508190509392505050565b7f4552433732313a206d696e7420746f20746865207a65726f2061646472657373600082015250565b60006138a860208361259a565b91506138b382613872565b602082019050919050565b600060208201905081810360008301526138d78161389b565b9050919050565b7f4552433732313a20746f6b656e20616c7265616479206d696e74656400000000600082015250565b6000613914601c8361259a565b915061391f826138de565b602082019050919050565b6000602082019050818103600083015261394381613907565b9050919050565b7f4552433732313a207472616e736665722066726f6d20696e636f72726563742060008201527f6f776e6572000000000000000000000000000000000000000000000000000000602082015250565b60006139a660258361259a565b91506139b18261394a565b604082019050919050565b600060208201905081810360008301526139d581613999565b9050919050565b7f4552433732313a207472616e7366657220746f20746865207a65726f2061646460008201527f7265737300000000000000000000000000000000000000000000000000000000602082015250565b6000613a3860248361259a565b9150613a43826139dc565b604082019050919050565b60006020820190508181036000830152613a6781613a2b565b9050919050565b7f4552433732313a20617070726f766520746f2063616c6c657200000000000000600082015250565b6000613aa460198361259a565b9150613aaf82613a6e565b602082019050919050565b60006020820190508181036000830152613ad381613a97565b9050919050565b7f4552433732313a207472616e7366657220746f206e6f6e20455243373231526560008201527f63656976657220696d706c656d656e7465720000000000000000000000000000602082015250565b6000613b3660328361259a565b9150613b4182613ada565b604082019050919050565b60006020820190508181036000830152613b6581613b29565b9050919050565b600081519050919050565b600082825260208201905092915050565b6000613b9382613b6c565b613b9d8185613b77565b9350613bad8185602086016125ab565b613bb6816125d5565b840191505092915050565b6000608082019050613bd660008301876126d6565b613be360208301866126d6565b613bf06040830185612abb565b8181036060830152613c028184613b88565b905095945050505050565b600081519050613c1c81612500565b92915050565b600060208284031215613c3857613c376124ca565b5b6000613c4684828501613c0d565b9150509291505056fea2646970667358221220465060804b74907e01db8dc2375323a04a0a6acee3068b76a2e4f455aaab048464736f6c63430008130033",
  "immutableReferences": {},
  "source": "// SPDX-License-Identifier: GPL-3.0\n\npragma solidity >=0.7.0 <0.9.0;\n\nimport \"@openzeppelin/contracts/token/ERC721/ERC721.sol\";\n// import \"@openzeppelin/contracts/token/ERC20/ERC20.sol\";\nimport \"@openzeppelin/contracts/utils/Counters.sol\";\n\ncontract VehicleSharing is ERC721 {\n    using Counters for Counters.Counter;\n    Counters.Counter private _tokenIdCounter;\n\n    struct Vehicle {\n        uint256 id;\n        string typeVehicle;\n        string make;\n        string model;\n        uint256 pricePerHour;\n        address currentRenter;\n        // address owner;\n        address[] renters;\n        bool isAvailable;\n        uint256 deposit_bal;  // amount deposited by user to rent the car\n        uint256 balance; // Balance earned by car owner from renting\n        uint256 temp_bal;\n        uint256 start;\n        uint256 end;\n    }\n\n    struct User {\n        string name;\n        string aadhar;\n        uint256 balance; // balance of user\n        uint256 locked_bal; // locked-balance\n        address userAddress;\n    }\n\n    mapping(address => User) public _users;\n    mapping(uint256 => Vehicle) public _vehicles;\n    address public manager;\n    uint256 private rentCount;\n\n    constructor() ERC721(\"VehicleToken\", \"VT\") {\n        manager = msg.sender;\n        rentCount = 0;\n    }\n\n    modifier onlyManager() {\n        require(msg.sender == manager, \"Unauthorized\");\n        _;\n    }\n\n    function registerUser(string memory name, string memory aadhar) external {\n        require(_users[msg.sender].userAddress == address(0), \"User is already registered\");\n        // require(msg.sender != manager, \"You are admin\");\n\n        User storage user = _users[msg.sender];\n        user.name = name;\n        user.balance = 65978657865478654;\n        user.locked_bal = 0;\n        user.aadhar = aadhar;\n        user.userAddress = msg.sender;\n    }\n\n    function addVehicle(string memory typeVehicle, string memory make, string memory model, uint256 pricePerHour, uint256 deposit_price) external onlyManager(){\n        _tokenIdCounter.increment();\n        uint256 vehicleId = _tokenIdCounter.current();\n        _mint(msg.sender, vehicleId);\n\n        Vehicle storage newVehicle = _vehicles[vehicleId];\n        newVehicle.id = vehicleId;\n        newVehicle.typeVehicle = typeVehicle;\n        newVehicle.make = make;\n        newVehicle.model = model;\n        newVehicle.pricePerHour = pricePerHour;\n        newVehicle.deposit_bal = deposit_price;\n        newVehicle.currentRenter = address(0);\n        newVehicle.isAvailable = true;\n        newVehicle.balance = 0;\n        newVehicle.temp_bal = 0;\n    }\n\n    function rentVehicle(uint256 vehicleId, uint256 start, uint256 end) external payable {\n        require(start < end, \"Invalid rental period\");\n        Vehicle storage vehicle = _vehicles[vehicleId];\n        require(vehicle.currentRenter == address(0), \"Vehicle is already rented\");\n        User storage user = _users[msg.sender];\n        require(user.userAddress != address(0), \"User is not registered\");\n\n        // other logic\n        uint256 rent_cost = vehicle.deposit_bal + (vehicle.pricePerHour * ((end - start) / 1 hours));\n        require(user.balance >= rent_cost, \"Insufficient funds\");\n        user.balance -= rent_cost;\n        user.locked_bal += rent_cost;\n        rentCount++;\n        vehicle.temp_bal = rent_cost;\n        vehicle.currentRenter = msg.sender;\n        vehicle.renters.push(msg.sender);\n        vehicle.isAvailable = false;\n        vehicle.start = start;\n        vehicle.end = end;\n        // transferFrom(ownerOf(vehicleId), msg.sender, vehicleId);\n        _transfer(ownerOf(vehicleId), msg.sender, vehicleId);\n    }\n\n    function returnVehicle(uint256 vehicleId) external {\n        Vehicle storage vehicle = _vehicles[vehicleId];\n        require(vehicle.currentRenter == msg.sender, \"You are not the renter of this vehicle\");\n\n        vehicle.currentRenter = address(0);\n        vehicle.isAvailable = true;\n        _transfer(ownerOf(vehicleId), manager, vehicleId);\n    }\n}",
  "sourcePath": "/home/shrawan/OneDrive/Blockchain Thesis/Vehicle_Sharing/contracts/vehicle.sol",
  "compiler": {
    "name": "solc",
    "version": "0.8.19+commit.7dd6d404.Emscripten.clang"
  },
  "schemaVersion": "3.4.13",
  "updatedAt": "2023-05-24T18:42:08.011Z",
  "devdoc": {
    "events": {
      "Approval(address,address,uint256)": {
        "details": "Emitted when `owner` enables `approved` to manage the `tokenId` token."
      },
      "ApprovalForAll(address,address,bool)": {
        "details": "Emitted when `owner` enables or disables (`approved`) `operator` to manage all of its assets."
      },
      "Transfer(address,address,uint256)": {
        "details": "Emitted when `tokenId` token is transferred from `from` to `to`."
      }
    },
    "kind": "dev",
    "methods": {
      "approve(address,uint256)": {
        "details": "See {IERC721-approve}."
      },
      "balanceOf(address)": {
        "details": "See {IERC721-balanceOf}."
      },
      "getApproved(uint256)": {
        "details": "See {IERC721-getApproved}."
      },
      "isApprovedForAll(address,address)": {
        "details": "See {IERC721-isApprovedForAll}."
      },
      "name()": {
        "details": "See {IERC721Metadata-name}."
      },
      "ownerOf(uint256)": {
        "details": "See {IERC721-ownerOf}."
      },
      "safeTransferFrom(address,address,uint256)": {
        "details": "See {IERC721-safeTransferFrom}."
      },
      "safeTransferFrom(address,address,uint256,bytes)": {
        "details": "See {IERC721-safeTransferFrom}."
      },
      "setApprovalForAll(address,bool)": {
        "details": "See {IERC721-setApprovalForAll}."
      },
      "supportsInterface(bytes4)": {
        "details": "See {IERC165-supportsInterface}."
      },
      "symbol()": {
        "details": "See {IERC721Metadata-symbol}."
      },
      "tokenURI(uint256)": {
        "details": "See {IERC721Metadata-tokenURI}."
      },
      "transferFrom(address,address,uint256)": {
        "details": "See {IERC721-transferFrom}."
      }
    },
    "version": 1
  },
  "userdoc": {
    "kind": "user",
    "methods": {},
    "version": 1
  }
}